:100000000C94E0000C9408010C9408010C94080175
:100010000C9408010C9408010C9408010C9408013C
:100020000C9408010C9408010C948C0C0C941E0B7D
:100030000C9408010C9408010C9408010C9408011C
:100040000C9408010C9408010C9408010C9408010C
:100050000C9408010C9408010C9408010C940C07F2
:100060000C9408010C9408010C9408010C940801EC
:100070000C9408010C9408010C9408010C940801DC
:100080000C9408010C9408010C9408010C940801CC
:100090000C9468030C9408010C9408010C9408015A
:1000A0000C9408010C9408010C9408012C082F08EA
:1000B0001E0822082808500850085008330837083E
:1000C0003B084108450850084B08000000020009A1
:1000D0000F0000030401000C0000000000000000FD
:1000E0000000000000000000000408020110408031
:1000F000401020408040800802040180402010020F
:10010000011080102040402004040404040304056E
:1001100002020202040302020202060606060606A4
:100120000404020202040400000000250028002B41
:10013000002E00310012010002EF0201404123377E
:100140008000010102030112010002000000404191
:1001500023378000010102030141726475696E6FEB
:10016000204C4C430041726475696E6F204D696389
:10017000726F0004030904080B0002020201000967
:100180000400000102020000052400100105240102
:10019000010104240206052406000107058103105D
:1001A000004009040100020A0000000705020240A5
:1001B0000000070583024000000026017E02200E99
:1001C00011241FBECFEFDAE0DEBFCDBF11E0A0E00B
:1001D000B1E0EAECFDE102C005900D92A237B10753
:1001E000D9F722E0A2E7B1E001C01D92AC3BB20713
:1001F000E1F711E0C0ECD1E004C02297FE010E94BB
:10020000DA0ECA3BD107C9F70E948A080C94E30EA4
:100210000C94000082E791E00E94160563E171E012
:1002200082E791E00E94DB0841E060E082E791E034
:100230000E941D0563E271E082E791E00E94DB0805
:1002400060ED77E080E090E00C9479078F92AF92B8
:10025000CF92EF920F931F921F9283E08F9387E0CC
:10026000882E96E0A92E25E0C22E34E0E32E00E091
:1002700021E042E067E282E791E00E9463060F908E
:100280000F900F900F91EF90CF90AF908F900895B7
:1002900020E044E064E182E791E00E94F10682E719
:1002A00091E00E94FF0468EE73E080E090E00C941F
:1002B00079078091BB0190E02091BC01821B9109DC
:1002C00008952091BC018091BB01281750F4E22FC2
:1002D000F0E0E354FE4F808190E02F5F2093BC015B
:1002E00008958FEF9FEF0895E091BC018091BB01CD
:1002F000E81730F4F0E0E354FE4F808190E0089579
:100300008FEF9FEF08950895CF92DF92EF92FF92C3
:100310000F931F93CF93DF937C01CB018A01209130
:100320009701222389F0EB016B01C40ED51ECC1579
:10033000DD0569F06991D701ED91FC910190F081A3
:10034000E02DC7010995F3CF642F0E943F03C80138
:10035000DF91CF911F910F91FF90EF90DF90CF90A1
:100360000895CF93DF931F92CDB7DEB769832091B5
:1003700097012223D1F020919801203240F021E012
:1003800030E0FC013383228380E090E015C080914F
:100390009901E82FF0E0E656FE4F998190838F5F38
:1003A000809399018093980105C061E0CE01019688
:1003B0000E943F0381E090E00F90DF91CF9108957C
:1003C000FC011382128248EE53E060E070E0448347
:1003D00055836683778386E391E0918380830895D4
:1003E0001092BC011092BB011092990110929801D9
:1003F0000C94820281E0809397016093BA0110927D
:1004000099011092980108950F93062F21E04091D1
:1004100098016AE971E08091BA010E94E8021092A5
:10042000990110929801109297010F9108958F925F
:100430009F92AF92BF92CF92DF92EF92FF920F9373
:100440001F93CF93DF93EC01F62ED42E4801590170
:10045000EE2019F10E94FA011E2D143008F013E06D
:100460001150B8F0E881F98128E0129FB001112401
:10047000A501940104C056954795379527956A952F
:10048000D2F7CA01B9010190F081E02DCE010995A2
:10049000E7CF60E0CE010E9404024D2D413208F00A
:1004A00040E22C2D6DEB71E08F2D0E94A002109286
:1004B000BC018093BB01DF91CF911F910F91FF9001
:1004C000EF90DF90CF90BF90AF909F908F90089566
:1004D000CF92EF920F931F93C22EE12C00E010E019
:1004E00098010E9417021F910F91EF90CF900895ED
:1004F00021E00C94680261E00C9404028BE891E026
:100500000C94E00110924A0281E08093480210921C
:10051000470261E082E00E94510861E083E00E94AE
:100520005108E9EBF0E080818E7F808380818D7FB0
:10053000808388E48093B80085E48093BC000895AC
:10054000413208F043C090914A029111FCCF91E0F2
:1005500090934A02209348022FEF2093DD011092DE
:100560002202240F20932102909349029091490284
:10057000880F892B8093490280914702813061F472
:1005800010924702809149028093BB008091BC0089
:1005900083FDF8CF85EC01C085EE8093BC0080918F
:1005A0004A028130E1F380912202841710F44091D5
:1005B000220223E232E0FB01D9018A2F821B841739
:1005C00018F48D918193F9CF842F089580E00895D8
:1005D0000F93413208F04AC090914A029111FCCF2A
:1005E00092E090934A02009348029FEF9093DD01BE
:1005F0001092220240932102FB0163E272E0DB01D0
:100600009A2F961B941718F491919D93F9CF1092FD
:10061000490290914902880F892B80934902809169
:100620004702813061F41092470280914902809321
:10063000BB008091BC0083FDF8CF85EC01C085EE46
:100640008093BC00222321F080914A028230E1F3A2
:100650008091DD018F3F61F08091DD01803251F0AA
:100660008091DD01803341F483E007C081E005C063
:1006700080E003C082E001C084E00F910895613200
:1006800098F420914A02243089F46093FF01FC0120
:1006900081E092E0DC012A2F281B261718F4219113
:1006A0002D93F9CF80E0089581E0089582E00895C8
:1006B00085ED8093BC008091BC0084FDFCCF10923E
:1006C0004A02089585EC8093BC0010924A02089576
:1006D0001F920F920FB60F9211242F933F934F93B7
:1006E0005F936F937F938F939F93AF93BF93EF939A
:1006F000FF938091B900887F803609F49EC078F519
:10070000883209F45DC090F4803109F456C038F4A1
:10071000882309F4F5C0883009F44FC0F5C088314A
:1007200009F44EC0803209F45FC0EEC0803409F491
:100730006AC058F4803309F457C0883309F0E4C024
:100740008093DD010E946203DFC0803509F44FC051
:10075000883509F45DC0883409F0D6C0D3C0883923
:1007600009F4C4C0A8F4883709F467C038F488369F
:1007700009F463C0803709F460C0C6C0883809F442
:10078000B5C0803909F45FC0803809F0BDC05BC0D6
:10079000803B09F483C038F4803A09F466C0883A93
:1007A00009F47CC0B1C0803C09F4A4C0883C09F4C1
:1007B000A1C0883B09F487C0A7C08091490210C03E
:1007C0009091220280912102981770F5E091220207
:1007D00081E08E0F80932202F0E0ED5DFD4F80817D
:1007E0008093BB0085EC83C08093DD018BC0E091DA
:1007F000220281E08E0F809322028091BB00F0E004
:10080000ED5DFD4F808390912202809121026BC0AB
:10081000E091220281E08E0F809322028091BB0042
:10082000F0E0ED5DFD4F80838091480281116AC048
:1008300081E08093470284EA5EC083E080934A02AD
:100840001092DE01CFCF8091DE01803208F04EC0E1
:10085000E091DE0181E08E0F8093DE018091BB008C
:10086000F0E0E152FE4F8083BDCF0E946203809191
:10087000DE01803230F4E091DE01F0E0E152FE4F23
:1008800010826091DE0170E0E0914302F091440239
:100890008FED91E009951092DE0136C084E08093DF
:1008A0004A02109200021092FF01E0914502F0917D
:1008B000460209958091FF01811105C081E0809376
:1008C000FF0110920102E091000281E08E0F8093FF
:1008D0000002F0E0EF5FFD4F80818093BB009091BC
:1008E00000028091FF01981708F47CCF85E880937F
:1008F000BC000AC085EC8093BC0010924A0204C080
:100900001092DD010E945803FF91EF91BF91AF91CA
:100910009F918F917F916F915F914F913F912F9117
:100920000F900FBE0F901F901895FC0112828FEF51
:100930008183108213820895FC018381882331F022
:10094000611103C08FEF8183089511820895CF93C1
:10095000DF93EC016A838BE891E00E94F00141E0B3
:100960006A818BE891E00E94780291E0811101C0D8
:1009700090E09B838BE891E00E94610188838B81EA
:1009800090E0DF91CF910895CF93DF93EC018B81BD
:100990008823A9F089818095862388836A818BE8E2
:1009A00091E00E94FA0168818BE891E00E94B10118
:1009B0008BE891E00E947B02282F30E002C020E00B
:1009C00030E081E090E0232B11F080E090E0DF91B7
:1009D000CF91089508950895DC01ED91FC91028472
:1009E000F385E02D41E0099581E090E00895FC0158
:1009F0001382128226E431E0318320830895DC01E2
:100A0000ED91FC910084F185E02D6FEF0994DC01FC
:100A1000ED91FC910284F385E02D40E0099461E0C2
:100A20000E94070580ED97E00C94B30762E00E94F6
:100A3000070580ED97E00C94B307CF93DF93CDB714
:100A4000DEB728970FB6F894DEBF0FBECDBF1D826C
:100A500020E42E8334E13F8334E5388719822A83EA
:100A600020E12B8320E52C83FC012781421710F025
:100A70004FEF420FFC01308550E0FE01E40FF51FFF
:100A8000303121F4243011F4218101C02581260F59
:100A90002068622F28960FB6F894DEBF0FBECDBF38
:100AA000DF91CF910C940705FC016581262F24600E
:100AB00025836C600C940705CF93DF93EC014230E3
:100AC00018F08C8188608C834F836887222329F0FB
:100AD000413019F48C8184608C8364E670E080E09E
:100AE00090E00E9479076C8164FD31C0E881F98152
:100AF0000284F385E02D42E063E0CE01099584E9AC
:100B000091E10E94B307E881F9810284F385E02D29
:100B100042E063E0CE01099584E991E10E94B307C8
:100B2000E881F9810284F385E02D42E063E0CE01A3
:100B3000099586E990E00E94B307E881F981028473
:100B4000F385E02D42E062E0CE01099516C06062B7
:100B5000CE010E94070584E991E10E94B3076C81F0
:100B60006062CE010E94070586E990E00E94B3070B
:100B70006C816062CE010E9407056C816062CE01CB
:100B80000E94070584E08D83CE010E945405CE01AA
:100B90000E940F0582E08E8366E0CE010E94070569
:100BA000CE01DF91CF910C94FF0421E001C0220F10
:100BB0006A95EAF7DC011C962C931C971A965C93B5
:100BC0004E931997ED91FC910084F185E02D60E042
:100BD0000994FC012485222399F081859285009750
:100BE00019F4611105C006C0019721F4611102C01A
:100BF000258701C015866585CF010E960C94C40427
:100C000008950F931F93CF93DF93EC018C01025F44
:100C10001F4F6B85C8010E94A704019761F461E032
:100C2000C8010E949C041C8260E0C8010E94C404A8
:100C300081E090E002C080E090E0DF91CF911F91D1
:100C40000F9108958F92AF92CF92EF920F93CF931F
:100C5000DF93CDB7DEB7FC01638714861586128655
:100C6000118681E0982F01C0990F4A95EAF7928B7F
:100C7000982F01C0990F2A95EAF7938B982F01C0FE
:100C8000990F0A95EAF7948B982F01C0990FEA946F
:100C9000EAF7958B982F01C0990FCA94EAF7968BC3
:100CA000982F01C0990FAA94EAF7978B01C0880F7B
:100CB0008A94EAF7808FDF91CF910F91EF90CF90D8
:100CC000AF908F9008954F925F926F927F928F9224
:100CD000AF92CF92EF920F931F93CF93DF9300D0F9
:100CE0001F92CDB7DEB73C011A894B885C882B83F5
:100CF0004A8369830E94F70486E591E0F3019183BA
:100D00008083C3010E960E9495042B814A816981DC
:100D1000C3010E942206A201612FC3010F900F9010
:100D20000F90DF91CF911F910F91EF90CF90AF90E7
:100D30008F907F906F905F904F900C94D505FF92AD
:100D40000F931F93CF93DF93EC01F62E8C01025F7C
:100D50001F4F6A896F29C8010E94C4046A8960957F
:100D60006F21C801DF91CF911F910F91FF900C94DB
:100D7000C40420E030E050E060FF05C0FC01E20F59
:100D8000F31F7589572B66952F5F3F4F2430310530
:100D900099F7413011F4FC014489FC016585652B0C
:100DA000642B0C949F060F931F93CF93DF93EC015A
:100DB000142F062F0F70423011F440E00AC070E08B
:100DC00084E0759567958A95E1F7CE010E94B90692
:100DD000412F602FCE01DF91CF911F910F910C9485
:100DE000B9060F931F93CF93DF9300D01F92CDB717
:100DF000DEB78C012B834A8369830E9401062B8115
:100E00004A816981C8010F900F900F90DF91CF91B7
:100E10001F910F910C945C051F920F920FB60F92C9
:100E200011242F933F938F939F93AF93BF93809100
:100E30004C0290914D02A0914E02B0914F02309120
:100E40004B0223E0230F2D3720F40196A11DB11D85
:100E500005C026E8230F0296A11DB11D20934B0269
:100E600080934C0290934D02A0934E02B0934F0298
:100E70008091500290915102A0915202B091530280
:100E80000196A11DB11D8093500290935102A09331
:100E90005202B0935302BF91AF919F918F913F91B6
:100EA0002F910F900FBE0F901F9018953FB7F89499
:100EB0008091500290915102A0915202B091530240
:100EC00026B5A89B05C02F3F19F00196A11DB11DA5
:100ED0003FBF6627782F892F9A2F620F711D811DC2
:100EE000911D42E0660F771F881F991F4A95D1F721
:100EF00008958F929F92AF92BF92CF92DF92EF921E
:100F0000FF926B017C010E9456074B015C01C114EA
:100F1000D104E104F104F1F00E942E0D0E94560765
:100F2000681979098A099B09683E73408105910512
:100F300070F321E0C21AD108E108F10888EE880EAA
:100F400083E0981EA11CB11CC114D104E104F1047A
:100F500029F7DDCFFF90EF90DF90CF90BF90AF905B
:100F60009F908F9008958230910538F0880F991FD7
:100F7000880F991F05970197F1F70895789484B524
:100F8000826084BD84B5816084BD85B5826085BD85
:100F900085B5816085BDEEE6F0E08081816080836B
:100FA000E1E8F0E01082808182608083808181604E
:100FB0008083E0E8F0E0808181608083E1E9F0E017
:100FC000808182608083808181608083E0E9F0E0BD
:100FD000808181608083E1ECF0E0808184608083A7
:100FE000808182608083808181608083E3ECF0E097
:100FF000808181608083E0ECF0E08081826080838A
:10100000E2ECF0E0808181608083EAE7F0E08081BB
:10101000846080838081826080838081816080831E
:10102000808180688083089590E0FC013197EF30E3
:10103000F105B0F5EA5AFF4F0C94D80E809180006C
:101040008F7703C0809180008F7D8093800008950A
:1010500080918000877FF9CF84B58F7702C084B5F7
:101060008F7D84BD0895809190008F7707C0809117
:1010700090008F7D03C080919000877F80939000C7
:1010800008958091C0008F7703C08091C0008F7D4C
:101090008093C00008958091C200877F8093C20032
:1010A00008950F931F93CF93DF931F92CDB7DEB7B1
:1010B000282F30E0F901E653FF4F8491F901E75101
:1010C000FF4F1491F901E85FFE4F04910023C9F02E
:1010D000882321F069830E9414086981E02FF0E0E1
:1010E000EE0FFF1FE95DFE4FA591B4919FB7F894F5
:1010F0008C91611103C01095812301C0812B8C93C9
:101100009FBF0F90DF91CF911F910F9108950E9483
:10111000DE0E08950E94BE070E94890884E592E0D1
:101120000E940F0D0E944801C0E0D0E00E940A0119
:101130002097E1F30E940000F9CFCF92DF92EF9267
:10114000FF920F931F93CF93DF937C016A01EB0112
:1011500000E010E00C151D0571F06991D701ED91CB
:10116000FC910190F081E02DC7010995892B19F0C0
:101170000F5F1F4FEFCFC801DF91CF911F910F91EC
:10118000FF90EF90DF90CF9008956115710581F089
:10119000DB010D900020E9F7AD0141505109461BDC
:1011A000570BDC01ED91FC910280F381E02D099455
:1011B00080E090E008950C94C508615030F02091D3
:1011C000F100FC0120830196F8CF289A84E68093F1
:1011D0005D020895409158025091590220915602A3
:1011E0003091570242175307B4F49091E80095707C
:1011F000E1F39091E80092FD19C08093F100809195
:1012000058029091590201968F739927892B19F4EE
:101210008EEF8093E80080915802909159020196D8
:10122000909359028093580281E0089580E00895D8
:10123000CF92DF92EF92FF920F931F93CF93DF93A2
:101240001F92CDB7DEB7082F162FF42E862F880FEA
:101250008E5F99830E94EA0883E00E94EA08E02EEC
:10126000C02E9981D92E8C2D8E19811798F4F601F4
:10127000F7FE02C0849101C080810E94EA08082F15
:1012800080E00E94EA088023FFEFCF1ADF0A811175
:10129000EACF01C081E00F90DF91CF911F910F91B4
:1012A000FF90EF90DF90CF9008958091D7008160FC
:1012B0008093D70080EA8093D80089B5806189BD8A
:1012C00089B5826089BD09B400FEFDCF61E070E0A0
:1012D00080E090E00E9479078091D8008F7C806147
:1012E0008093D8008091E000807F8093E000089593
:1012F000CF93DF931F92CDB7DEB71982CE0101964F
:101300000E948C0D0E94C40EBE016F5F7F4F0E9431
:101310003D0E89810F90DF91CF9108952FB7FC0189
:101320002083F89467706093E9000895CF93DF936A
:101330001F92CDB7DEB7682FCE0101960E948E09AD
:101340008091F20099819FBF0F90DF91CF91089516
:10135000FF920F931F93CF93DF9300D0CDB7DEB7EB
:10136000F62E8A0190915C02992311F057FF03C079
:101370008FEF9FEF2BC0682FCE0101967A830E94DA
:101380008E098091F20090E0A8017A818017910780
:101390000CF4AC01EF2DF72FF40E84E6FE1639F0B5
:1013A000289A80935D029091F1009193F7CF4115B7
:1013B000510521F08091F200882321F089818FBFAF
:1013C000CA0104C08BE68093E800F8CF0F900F901D
:1013D000DF91CF911F910F91FF900895CF93DF93ED
:1013E0001F92CDB7DEB741E050E0BE016F5F7F4F87
:1013F0000E94A809019719F4898190E002C08FEF3B
:101400009FEF0F90DF91CF910895CF93DF931F92BD
:10141000CDB7DEB7682FCE0101960E948E0990915C
:10142000E800892F807295FF04C09091F20080E45B
:10143000891B99819FBF0F90DF91CF9108956F9283
:101440007F928F929F92AF92BF92CF92DF92EF9254
:10145000FF920F931F93CF93DF931F92CDB7DEB709
:10146000782E7B01C42EB52E80915C02882369F012
:10147000042F152F8AEFD82E872D8072982E9AE38D
:10148000A92E872D8074882E11C08FEF9FEF57C033
:10149000872D0E94050A682E81110CC0DA94A9F3E9
:1014A00061E070E080E090E00E947907011511058D
:1014B00079F73BC0282F30E0021713070CF4602E99
:1014C000672DCE0101960E948E098091E80085FF6C
:1014D00029C0262D30E0021B130B992039F06A94A5
:1014E0008FEF6816B1F01092F100F9CFF701862D59
:1014F00077FE07C0815058F094919093F100319697
:10150000F9CF815020F091919093F100FACFE20E43
:10151000F31E8091E80085FF0FC00115110511F43D
:1015200081100AC089818FBFC1CF5D9A84E6809304
:101530005E028C2D9B2D03C0A092E800F3CF0F908C
:10154000DF91CF911F910F91FF90EF90DF90CF909F
:10155000BF90AF909F908F907F906F900895109262
:10156000E90010925902109258029093570280930A
:1015700056020895CF92DF92FF920F931F93CF935D
:10158000DF9300D0CDB7DEB7F82E8A016B010115CD
:101590001105B1F0F601F7FE02C0849101C080810F
:1015A00049835A830E94EA0801501109FFEFCF1ABC
:1015B000DF0A49815A818111EACF8FEF9FEF01C085
:1015C000CA010F900F90DF91CF911F910F91FF9063
:1015D000DF90CF900895BF92CF92DF92EF92FF926B
:1015E0000F931F93CF93DF936C018B01EB013BEFC4
:1015F000B32E2097C1F07E01C134D1051CF020E448
:10160000E22EF12C8091E80082FFFCCFC8018C1BF8
:101610009D0B6E2D8C0D9D1D0E94DD08B092E80083
:10162000CE19DF09E6CFC801DF91CF911F910F914D
:10163000FF90EF90DF90CF90BF9008951F920F9290
:101640000FB60F921124DF92EF92FF920F931F9328
:101650002F933F934F935F936F937F938F939F93BA
:10166000AF93BF93EF93FF93CF93DF93CDB7DEB7E5
:101670006C97DEBFCDBF1092E9008091E80083FF38
:1016800023C168E0CE0145960E94DD0882EF809379
:10169000E8003D8937FF05C08091E80080FFFCCF5E
:1016A00003C08EEF8093E800832F807609F0F0C0AE
:1016B0002E894F89D88C21110CC0303829F48091A3
:1016C0005B028093F10002C01092F1001092F100D1
:1016D000F4C0842F90E09D29213049F43111EDC0F0
:1016E000019709F0EAC080915B028D7F0AC0233028
:1016F00059F43111E2C0019709F0DFC080915B021B
:10170000826080935B02D9C0253041F48091E8006B
:1017100080FFFCCF40684093E300CFC0263009F043
:101720008DC0EB8CFC8C22E0D2122CC080E090E0CB
:101730000E94AF0A0E94780999E08E010F5F1F4F47
:10174000F801292F11922A95E9F79983DA8291E01D
:101750009E8390EA98879AEF99872091580230915A
:101760005902275F3F4F3C832B838D83C7010E9423
:10177000AF0A49E050E0B80180E00E94BA0A0E9436
:1017800078099BC0C7010E94AF0A0E94C40EBE0127
:101790006B5E7F4F0E94660E009719F00CF08DC0B3
:1017A00090C081E0D8120EC08B8D9C8D089719F4E3
:1017B00081E0809355028091550281112FC067E42A
:1017C00071E031C0E3E0DE127CC08F89882349F1EB
:1017D000823029F440E86DE085E691E01CC081305C
:1017E00029F440E86BE089E591E015C0833009F009
:1017F00068C00E94C40E8E010F5F1F4FB8010E9487
:10180000850EF80101900020E9F73197E01BF10BFC
:1018100040E06E2FC8010E9418094DC065E371E0D9
:1018200002C063E771E06115710509F44AC0FB016C
:10183000449150E080E80E94BA0A3FC0273009F482
:1018400040C0283021F481E08093F10036C0293077
:10185000A1F53370B1F5E1E0F1E081E021E036E39C
:101860009081992361F08093E9002093EB0091919E
:101870009093EC003093ED008F5F873089F78EE70F
:101880008093EA001092EA008F8980935C0215C071
:101890008B8D9C8D0E94AF0A898D811105C0CE0170
:1018A00045960E94970D07C00E94C40EBE016B5E54
:1018B0007F4F0E94A40E882321F08EEF8093E800D2
:1018C00003C081E28093EB006C960FB6F894DEBF04
:1018D0000FBECDBFDF91CF91FF91EF91BF91AF913F
:1018E0009F918F917F916F915F914F913F912F9138
:1018F0001F910F91FF90EF90DF900F900FBE0F9010
:101900001F9018958093E9008091F200882319F0C8
:101910008AE38093E80008951F920F920FB60F920A
:1019200011242F933F934F935F936F937F938F93E4
:101930009F93AF93BF93CF93EF93FF93C091E10039
:101940008091E100837F8093E1008093E100C3FFF9
:101950000FC01092E90081E08093EB001092EC0040
:1019600082E38093ED0010925C0288E08093F000A7
:10197000C2FF19C083E00E94820C80915E0288231E
:1019800039F080915E02815080935E02882389F154
:1019900080915D02882339F080915D0281508093AF
:1019A0005D02882341F1C4FF10C08091E2008E7E69
:1019B00081608093E2008091E1008F7E8093E1005E
:1019C00080915A028E7E806111C0C0FF16C0809146
:1019D000E2008E7E80618093E2008091E1008E7E45
:1019E0008093E10080915A028E7E816080935A023A
:1019F00004C05D98CDCF2898D6CFFF91EF91CF91BD
:101A0000BF91AF919F918F917F916F915F914F9116
:101A10003F912F910F900FBE0F901F90189510922D
:101A20005C0210925B0210925A020E94550980914A
:101A3000E1008E7E8093E1008DE08093E200559A74
:101A4000209A5D982898EEEFFFE7859194918B3F5F
:101A50009C4D19F481E08093AF0208950895CF93CF
:101A6000DF931F92CDB7DEB76983DC01ED91FC9166
:101A70000280F381E02D41E050E0BE016F5F7F4FB7
:101A800009950F90DF91CF910895CF93DF93EC01EB
:101A90008C859D8597FF05C082E00E94EE099D8799
:101AA0008C878C859D85DF91CF91089583E00C9480
:101AB000820CFC018485958597FD06C082E00E941A
:101AC000960990E00196089582E00E94960990E0C0
:101AD0000895FC018485958597FD05C02FEF3FEFA4
:101AE00035872487089582E00C94EE09CF93DF9325
:101AF000EC0180911201882331F083E00E941F0ADB
:101B00001816190634F081E090E09B838A8380E008
:101B100090E0DF91CF910895FC0120812E5F20831A
:101B200042E450E067E771E080E80C94BA0AFC01F7
:101B300021818081813A59F4213209F04BC047E07C
:101B400050E06BE071E080E00E94BA0A5EC0813232
:101B500009F040C0233289F4838190E0982F8827D0
:101B60003281832BA0E0B0E08093070190930801BD
:101B7000A0930901B0930A010FC0203239F467E045
:101B800070E08BE091E00E94EB0A09C0223221F460
:101B900082818093120103C02D7F2032B1F58091A4
:101BA000AF02811103C0E0E0F8E002C0EEEFFAE01E
:101BB00080910B0190910C01A0910D01B0910E014B
:101BC000803B9440A105B10511F58091120180FF81
:101BD00003C01DC080E00895EE3F2AE0F20731F017
:101BE000808191819093FF0A8093FE0A87E797E7AF
:101BF000918380832BE088E190E00FB6F894A8955C
:101C0000809360000FBE2093600081E0089588E11A
:101C10000FB6F89480936000109260000FBEA895F4
:101C2000EE3F8AE0F80739F08091FE0A9091FF0AB2
:101C300091838083EACF1092FF0A1092FE0AE5CFCB
:101C4000109262021092610288EE93E0A0E0B0E090
:101C50008093630290936402A0936502B09366023E
:101C600086E691E09093600280935F028FEF9FEF92
:101C700090936C0280936B020895EF92FF920F9302
:101C80001F93CF93DF937B01FC01C281D38100E0DE
:101C900010E0209781F0E881F9810280F381E02D46
:101CA000B701CE01099597FD08C0080F191F0884D8
:101CB000D985C02DEECFC80102C08FEF9FEFDF9115
:101CC000CF911F910F91FF90EF9008950F931F9365
:101CD000CF93DF938B01FC01C281D381209771F0F8
:101CE000E881F9810480F581E02DB801CE010995E4
:101CF000009731F40884D985C02DF0CF80E090E0C2
:101D0000DF91CF911F910F9108950F931F93CF9360
:101D1000DF938B01FC01C281D381209771F0E881B0
:101D2000F9810680F781E02DB801CE010995080FF1
:101D3000111D0884D985C02DF0CFF8011082DF91E4
:101D4000CF911F910F9108950F931F93CF93DF931E
:101D50008B01FC01C281D381209771F0E881F98168
:101D60000190F081E02DB801CE010995811106C0E6
:101D70000884D985C02DF0CF80E001C081E0DF91DB
:101D8000CF911F910F9108958091B40281110DC0E0
:101D900082E08093B00284E08093B1021092B3029B
:101DA0001092B20281E08093B40280EB92E0089539
:101DB000EE0FFF1F0590F491E02D099481E090E073
:0A1DC000F8940C94E30EF894FFCFA2
:101DCA0000C18081000000FFFFFFFF00E10000006A
:101DDA0000000048656C6C6F2C2041524455494EF6
:101DEA004F200020464F52554D202D20666D202051
:101DFA00200000000000B101840159016101740151
:101E0A00830100000000EC049D085C05EA04EB0471
:101E1A00870800000000EC049D08F106D505E905D5
:101E2A00D306000000002F0D760D590D690D450DE2
:021E3A00560D43
:00000001FF
