:100000000C94B3010C94DB010C94DB010C94DB0128
:100010000C94DB010C94DB010C94DB010C94DB01F0
:100020000C94DB010C94DB010C9474120C940611FB
:100030000C94DB010C94DB010C94DB010C94DB01D0
:100040000C94DB010C94DB010C94DB010C94DB01C0
:100050000C94DB010C94DB010C94DB010C94440C3C
:100060000C94DB010C94DB010C94DB010C94DB01A0
:100070000C94DB010C94DB010C94DB010C94DB0190
:100080000C94DB010C94DB010C94DB010C94DB0180
:100090000C94A0080C94DB010C94DB010C94DB01A4
:1000A0000C94DB010C94DB010C94DB01A10DA40D7D
:1000B000930D970D9D0DC50DC50DC50DA80DAC0D6E
:1000C000B00DB60DBA0DC50DC00D07634236B79B16
:1000D000D8A71A39685618AEBAAB558C1D3CB7CCA8
:1000E0005763BD6DEDFD753EF6177231BF00000020
:1000F000803F08000000BE922449123EABAAAA2A03
:10010000BECDCCCC4C3E00000080BEABAAAAAA3E1D
:1001100000000000BF000000803F00000000000859
:100120004178D3BB4387D1133D190E3CC3BD4282F6
:10013000AD2B3E68EC8276BED98FE1A93E4C80EFB4
:10014000FFBE01C4FF7F3F0000000000070605045A
:100150000100080A0B0C0D090000000200090F0045
:1001600000030401000C000000000000000000007B
:100170000000000000000004080201104080401050
:1001800020408040800802040180402010020110BD
:1001900080102040402004040404040304050202EB
:1001A0000202040302020202060606060606040410
:1001B0000202020404000000002300260029002C93
:1001C000002F0000000000250028002B002E003129
:1001D0000000000000240027002A002D003000123B
:1001E000010002EF020140412337800001010203B8
:1001F000011201000200000040412337800001018C
:1002000002030141726475696E6F204C4C430041DA
:10021000726475696E6F204D6963726F0004030923
:1002200004080B000202020100090400000102029E
:100230000000052400100105240101010424020628
:100240000524060001070581031000400904010090
:10025000020A0000000705020240000007058302B1
:1002600040000000407A10F35A00A0724E180900B6
:1002700010A5D4E80000E87648170000E40B54020B
:100280000000CA9A3B000000E1F505000080969846
:1002900000000040420F000000A086010000001096
:1002A0002700000000E803000000006400000000D8
:1002B000000A00000000000100000000002C76D8B9
:1002C00088DC674F0823DFC1DFAE59E1B1B796E59F
:1002D000E3E453C63AE651997696E8E6C28426EB03
:1002E000898C9B62ED407C6FFCEFBC9C9F40F2BA16
:1002F000A56FA5F490055A2AF75C936B6CF9676DAE
:10030000C11BFCE0E40D47FEF520E6B500D0ED9002
:100310002E0300943577050080841E080000204ECF
:100320000A000000C80C333333330F986E12831168
:1003300041EF8D2114893BE65516CFFEE6DB18D13F
:10034000844B381BF77C1D901DA4BBE42420328411
:10035000725E228100C9F124ECA1E53D270002066E
:10036000B607B2152A0611241FBECFEFDAE0DEBFB2
:10037000CDBF11E0A0E0B1E0EEE0FEE302C00590E9
:100380000D92A63DB107D9F723E0A6EDB1E001C07B
:100390001D92AE34B207E1F713E0C4E6D3E004C027
:1003A0002297FE010E94011ACE35D107C9F70E949B
:1003B000640E0C94FA1E0C940000CF92DF92EF9220
:1003C000FF920F931F93E82FF92F05C001501109D9
:1003D0002109310961F1908196239417B9F305C081
:1003E000015011092109310911F1908196239413CB
:1003F000F7CFC12CD12CE12CF12C0AC08FEFC81AF9
:10040000D80AE80AF80A0C151D052E053F0579F0F3
:1004100080818623841791F36C2D7D2D8E2D9F2D49
:100420001F910F91FF90EF90DF90CF90089560E0C3
:1004300070E080E090E01F910F91FF90EF90DF90CF
:10044000CF90089561E082E10E94C60D60E083E1F3
:100450000E94C60D61E084E10E94C60D60E085E166
:100460000E94C60D60E082E10E94FF0D60E084E121
:100470000C94FF0DF89461E082E10E94FF0D8AE088
:1004800090E00E94F70C60E082E10E94FF0D20E402
:1004900032E44FE050E061E083E10E94350E60936A
:1004A000E2017093E3018093E4019093E501789475
:1004B0006091E2017091E3018091E4019091E50186
:1004C00022E030E040E050E00E94E0192093E20199
:1004D0003093E3014093E4015093E501CA01B9016F
:1004E0000E946A172DEC3CEC48EE51E40E94CF16B6
:1004F0000E9437176093F6017093F7018093F8011B
:100500009093F90160910C0170910D01882777FD9E
:100510008095982F0E94BD0CF89461E084E10E94C0
:10052000FF0D8AE090E00E94F70C60E084E10E94F9
:10053000FF0D20E432E44FE050E061E085E10E94ED
:10054000350E6093DE017093DF018093E00190939C
:10055000E10178946091DE017091DF018091E0010A
:100560009091E10122E030E040E050E00E94E0198B
:100570002093DE013093DF014093E0015093E101CD
:10058000CA01B9010E946A172DEC3CEC48EE51E417
:100590000E94CF160E9437176093F2017093F30107
:1005A0008093F4019093F501089561E082E10E9447
:1005B000C60D60E083E10E94C60D61E084E10E9407
:1005C000C60D60E085E10E94C60D61E082E10E94F7
:1005D000FF0D61E084E10C94FF0DCF92DF92EF926A
:1005E000FF92CF93DF931092DA011092DB01109209
:1005F000DC011092DD01C0E0D0E0209108013091D3
:1006000009012C173D073CF160910A0170910B0123
:10061000882777FD8095982F0E94BD0CC090DA0145
:10062000D090DB01E090DC01F090DD0183E10E94DD
:10063000580DAA2797FDA095BA2F8C0D9D1DAE1DB4
:10064000BF1D8093DA019093DB01A093DC01B0938E
:10065000DD012196D2CF442737FD4095542F60917C
:10066000DA017091DB018091DC019091DD010E9443
:10067000E0192093DA013093DB014093DC015093C1
:10068000DD01CA01B9010E946A172EEA37E441EC84
:100690005FEB0E94591820E83AE547E358E40E94CE
:1006A000F6170E9437176093F6017093F701809355
:1006B000F8019093F90160910C0170910D01882768
:1006C00077FD8095982F0E94BD0C1092D601109254
:1006D000D7011092D8011092D901C0E0D0E020914A
:1006E0000801309109012C173D073CF160910A0186
:1006F00070910B01882777FD8095982F0E94BD0C83
:10070000C090D601D090D701E090D801F090D901E7
:1007100085E10E94580DAA2797FDA095BA2F8C0D50
:100720009D1DAE1DBF1D8093D6019093D701A09350
:10073000D801B093D9012196D2CF442737FD4095F7
:10074000542F6091D6017091D7018091D80190917A
:10075000D9010E94E0192093D6013093D70140932C
:10076000D8015093D901CA01B9010E946A172EEA33
:1007700037E441EC5FEB0E94591820E83AE547E383
:1007800058E40E94F6170E9437176093F2017093A5
:10079000F3018093F4019093F501DF91CF91FF90E5
:1007A000EF90DF90CF90089560E083E10E94C60D46
:1007B00060E085E10C94C60DCF92DF92EF92FF923C
:1007C000CF93DF931092DA011092DB011092DC01DB
:1007D0001092DD01C0E0D0E02091080130910901C4
:1007E0002C173D073CF160910A0170910B0188279D
:1007F00077FD8095982F0E94BD0CC090DA01D090B3
:10080000DB01E090DC01F090DD0183E10E94580DF6
:10081000AA2797FDA095BA2F8C0D9D1DAE1DBF1D5B
:100820008093DA019093DB01A093DC01B093DD01AA
:100830002196D2CF442737FD4095542F6091DA019D
:100840007091DB018091DC019091DD010E94E01943
:100850002093DA013093DB014093DC015093DD01FA
:10086000CA01B9010E946A1720E030E040EA5BE368
:100870000E94F6172DEC3CEC4CE85FEB0E945918F7
:1008800020E030E042E852E40E94F6170E94371759
:100890006093F6017093F7018093F8019093F9014A
:1008A00060910C0170910D01882777FD8095982F3C
:1008B0000E94BD0C1092D6011092D7011092D8015F
:1008C0001092D901C0E0D0E02091080130910901D7
:1008D0002C173D073CF160910A0170910B018827AC
:1008E00077FD8095982F0E94BD0CC090D601D090C6
:1008F000D701E090D801F090D90185E10E94580D10
:10090000AA2797FDA095BA2F8C0D9D1DAE1DBF1D6A
:100910008093D6019093D701A093D801B093D901C9
:100920002196D2CF442737FD4095542F6091D601B0
:100930007091D7018091D8019091D9010E94E0195E
:100940002093D6013093D7014093D8015093D90119
:10095000CA01B9010E946A172FE632E143E85AE35F
:100960000E94F6172EE03DE24AE95FEB0E9459181B
:1009700022EF32ED4DED51E40E94F6170E94371739
:100980006093F2017093F3018093F4019093F50169
:10099000DF91CF91FF90EF90DF90CF900895CF92AD
:1009A000DF92EF92FF92CF93DF93CDB7DEB72C9714
:1009B0000FB6F894DEBF0FBECDBF0E948E0C6093C1
:1009C000EE017093EF018093F0019093F10180911B
:1009D0000601909107018230910541F08330910525
:1009E00041F0019741F40E943A0205C00E94ED02D5
:1009F00002C00E94DC030E948E0CC090EE01D090D9
:100A0000EF01E090F001F090F1016C197D098E0981
:100A10009F096093EA017093EB018093EC0190933E
:100A2000ED010E9468172FE632E143E85AE30E9485
:100A3000F6179B01AC0160E070E080E89FE30E9444
:100A4000CF166093E6017093E7018093E8019093DD
:100A5000E9018AEF91E00E944E0AC090F601D09021
:100A6000F701E090F801F090F90162E271E0CE0147
:100A700007960E948413BE01695F7F4FCE010196E5
:100A80000E94B113B701A601CE0101960E949614EF
:100A90006AE271E00E947C14BC018AEF91E00E943E
:100AA000B50ECE0101960E941613CE0107960E9444
:100AB000161341E060E08AEF91E00E94550AC09071
:100AC000F201D090F301E090F401F090F50162E3BF
:100AD00071E0CE0107960E948413BE01695F7F4FCB
:100AE000CE0101960E94B113B701A601CE01019675
:100AF0000E9496146AE271E00E947C14BC018AEFA5
:100B000091E00E94B50ECE0101960E941613CE010F
:100B100007960E94161342E060E08AEF91E00E947F
:100B2000550AC090EA01D090EB01E090EC01F09002
:100B3000ED016AE371E0CE0107960E948413BE01C5
:100B4000695F7F4FCE0101960E94B113B701A601E4
:100B5000CE0101960E94A41466E471E00E947C1408
:100B6000BC018AEF91E00E94B50ECE0101960E9471
:100B70001613CE0107960E94161343E060E08AEF39
:100B800091E00E94550AC090E601D090E701E09004
:100B9000E801F090E9016EE471E0CE0107960E9451
:100BA0008413BE01695F7F4FCE0101960E94B1138D
:100BB000B701A601CE0101960E94B21460E371E074
:100BC0000E947C14BC018AEF91E00E94B50ECE0118
:100BD00001960E941613CE0107960E94161364EF29
:100BE00071E080E090E00E94BD0C2C960FB6F89466
:100BF000DEBF0FBECDBFDF91CF91FF90EF90DF90B2
:100C0000CF9008958F92AF92CF92EF920F936DE5B0
:100C100071E083E192E00E9484131F921F9283E0AF
:100C20008F9387E0882E96E0A92E25E0C22E34E02F
:100C3000E32E00E021E042E067E28AEF91E00E94CB
:100C40009B0B0F900F900F900F91EF90CF90AF9064
:100C50008F90089583E192E00C9416138091060121
:100C6000909107018230910541F08330910541F068
:100C7000019741F40E94220205C00E94D50202C0E1
:100C80000E94D40320E044E064E18AEF91E00E94F6
:100C9000290C8AEF91E00E94370A8AEF91E00E94C6
:100CA0004E0A64E671E08AEF91E00E94C30E40E0D4
:100CB0006CE08AEF91E00E94550A63E172E08AEFEE
:100CC00091E00E94B50E41E060E08AEF91E00E9461
:100CD000550A6CE671E08AEF91E00E94C30E42E093
:100CE00060E08AEF91E00E94550A63E771E08AEFC5
:100CF00091E00E94C30E43E060E08AEF91E00E9421
:100D0000550A64E871E08AEF91E00E94C30E60ED3D
:100D100077E080E090E00E94BD0C8AEF91E00C94B7
:100D2000470A8091490290E020914A02821B910972
:100D3000089520914A0280914902281750F4E22F29
:100D4000F0E0E55BFD4F808190E02F5F20934A0249
:100D500008958FEF9FEF0895E0914A028091490234
:100D6000E81730F4F0E0E55BFD4F808190E00895F6
:100D70008FEF9FEF08950895CF92DF92EF92FF9249
:100D80000F931F93CF93DF937C01CB018A012091B6
:100D90002502222389F0EB016B01C40ED51ECC1570
:100DA000DD0569F06991D701ED91FC910190F08129
:100DB000E02DC7010995F3CF642F0E947708C80181
:100DC000DF91CF911F910F91FF90EF90DF90CF9027
:100DD0000895CF93DF931F92CDB7DEB7698320913B
:100DE00025022223D1F020912602203240F021E07A
:100DF00030E0FC013383228380E090E015C08091D5
:100E00002702E82FF0E0E85DFD4F998190838F5F26
:100E1000809327028093260205C061E0CE010196EF
:100E20000E94770881E090E00F90DF91CF910895C4
:100E3000FC011382128248EE53E060E070E04483CC
:100E40005583668377838AE991E09183808308954F
:100E500010924A0210924902109227021092260222
:100E60000C94BA0781E080932502609348021092A7
:100E700027021092260208950F93062F21E0409139
:100E8000260268E272E0809148020E9420081092D7
:100E9000270210922602109225020F9108958F9238
:100EA0009F92AF92BF92CF92DF92EF92FF920F93F9
:100EB0001F93CF93DF93EC01F62ED42E48015901F6
:100EC000EE2019F10E9432071E2D143008F013E0B5
:100ED0001150B8F0E881F98128E0129FB001112487
:100EE000A501940104C056954795379527956A95B5
:100EF000D2F7CA01B9010190F081E02DCE01099528
:100F0000E7CF60E0CE010E943C074D2D413208F052
:100F100040E22C2D6BE472E08F2D0E94D8071092D6
:100F20004A0280934902DF91CF911F910F91FF9068
:100F3000EF90DF90CF90BF90AF909F908F900895EB
:100F4000CF92EF920F931F93C22EE12C00E010E09E
:100F500098010E944F071F910F91EF90CF90089535
:100F600021E00C94A00761E00C943C0789E192E039
:100F70000C9418071092D80281E08093D602109248
:100F8000D50261E082E00E94FF0D61E083E00E94F3
:100F9000FF0DE9EBF0E080818E7F808380818D7F83
:100FA000808388E48093B80085E48093BC00089532
:100FB000413208F043C09091D8029111FCCF91E0EA
:100FC0009093D8022093D6022FEF20936B021092B9
:100FD000B002240F2093AF029093D7029091D702D2
:100FE000880F892B8093D7028091D502813061F4DC
:100FF0001092D5028091D7028093BB008091BC00F3
:1010000083FDF8CF85EC01C085EE8093BC00809114
:10101000D8028130E1F38091B002841710F440913E
:10102000B00221EB32E0FB01D9018A2F821B841729
:1010300018F48D918193F9CF842F089580E008955D
:101040000F93413208F04AC09091D8029111FCCF21
:1010500092E09093D8020093D6029FEF90936B0298
:101060001092B0024093AF02FB0161EB72E0DB0132
:101070009A2F961B941718F491919D93F9CF109283
:10108000D7029091D702880F892B8093D702809145
:10109000D502813061F41092D5028091D7028093FD
:1010A000BB008091BC0083FDF8CF85EC01C085EECC
:1010B0008093BC00222321F08091D8028230E1F39A
:1010C00080916B028F3F61F080916B02803251F012
:1010D00080916B02803341F483E007C081E005C05A
:1010E00080E003C082E001C084E00F910895613286
:1010F00098F42091D802243089F460938D02FC0189
:101100008FE892E0DC012A2F281B261718F4219182
:101110002D93F9CF80E0089581E0089582E008954D
:1011200085ED8093BC008091BC0084FDFCCF1092C3
:10113000D802089585EC8093BC001092D8020895DF
:101140001F920F920FB60F9211242F933F934F933C
:101150005F936F937F938F939F93AF93BF93EF931F
:10116000FF938091B900887F803609F49EC078F59E
:10117000883209F45DC090F4803109F456C038F427
:10118000882309F4F5C0883009F44FC0F5C08831D0
:1011900009F44EC0803209F45FC0EEC0803409F417
:1011A0006AC058F4803309F457C0883309F0E4C0AA
:1011B00080936B020E949A08DFC0803509F44FC00B
:1011C000883509F45DC0883409F0D6C0D3C08839A9
:1011D00009F4C4C0A8F4883709F467C038F4883625
:1011E00009F463C0803709F460C0C6C0883809F4C8
:1011F000B5C0803909F45FC0803809F0BDC05BC05C
:10120000803B09F483C038F4803A09F466C0883A18
:1012100009F47CC0B1C0803C09F4A4C0883C09F446
:10122000A1C0883B09F487C0A7C08091D70210C035
:101230009091B0028091AF02981770F5E091B002E2
:1012400081E08E0F8093B002F0E0EF54FD4F80817B
:101250008093BB0085EC83C080936B028BC0E091D0
:10126000B00281E08E0F8093B0028091BB00F0E06D
:10127000EF54FD4F80839091B0028091AF026BC01C
:10128000E091B00281E08E0F8093B0028091BB00AC
:10129000F0E0EF54FD4F80838091D60281116AC047
:1012A00081E08093D50284EA5EC083E08093D80217
:1012B00010926C02CFCF80916C02803208F04EC049
:1012C000E0916C0281E08E0F80936C028091BB00F4
:1012D000F0E0E359FD4F8083BDCF0E949A088091D2
:1012E0006C02803230F4E0916C02F0E0E359FD4F83
:1012F000108260916C0270E0E091D102F091D20214
:101300008DE692E0099510926C0236C084E08093DD
:10131000D80210928E0210928D02E091D302F091C9
:10132000D402099580918D02811105C081E08093DE
:101330008D0210928F02E0918E0281E08E0F8093D9
:101340008E02F0E0E157FD4F80818093BB009091C9
:101350008E0280918D02981708F47CCF85E88093E7
:10136000BC000AC085EC8093BC001092D80204C077
:1013700010926B020E949008FF91EF91BF91AF9184
:101380009F918F917F916F915F914F913F912F919D
:101390000F900FBE0F901F901895FC0112828FEFD7
:1013A0008183108213820895FC018381882331F0A8
:1013B000611103C08FEF8183089511820895CF9347
:1013C000DF93EC016A8389E192E00E94280741E003
:1013D0006A8189E192E00E94B00791E0811101C029
:1013E00090E09B8389E192E00E94990688838B813B
:1013F00090E0DF91CF910895CF93DF93EC018B8143
:101400008823A9F089818095862388836A8189E170
:1014100092E00E943207688189E192E00E94E90629
:1014200089E192E00E94B307282F30E002C020E05B
:1014300030E081E090E0232B11F080E090E0DF913C
:10144000CF91089508950895DC01ED91FC910284F7
:10145000F385E02D41E0099581E090E00895FC01DD
:10146000138212822AEA31E0318320830895DC015D
:10147000ED91FC910084F185E02D6FEF0994DC0182
:10148000ED91FC910284F385E02D40E0099461E048
:101490000E943F0A80ED97E00C94F70C62E00E94F6
:1014A0003F0A80ED97E00C94F70CCF93DF93CDB714
:1014B000DEB728970FB6F894DEBF0FBECDBF1D82F2
:1014C00020E42E8334E13F8334E5388719822A8370
:1014D00020E12B8320E52C83FC012781421710F0AB
:1014E0004FEF420FFC01308550E0FE01E40FF51F85
:1014F000303121F4243011F4218101C02581260FDF
:101500002068622F28960FB6F894DEBF0FBECDBFBD
:10151000DF91CF910C943F0AFC016581262F246056
:1015200025836C600C943F0ACF93DF93EC0142302B
:1015300018F08C8188608C834F836887222329F080
:10154000413019F48C8184608C8364E670E080E023
:1015500090E00E94BD0C6C8164FD31C0E881F9818E
:101560000284F385E02D42E063E0CE01099584E931
:1015700091E10E94F70CE881F9810284F385E02D66
:1015800042E063E0CE01099584E991E10E94F70C05
:10159000E881F9810284F385E02D42E063E0CE0129
:1015A000099586E990E00E94F70CE881F9810284B0
:1015B000F385E02D42E062E0CE01099516C060623D
:1015C000CE010E943F0A84E991E10E94F70C6C81F0
:1015D0006062CE010E943F0A86E990E00E94F70C0B
:1015E0006C816062CE010E943F0A6C816062CE0114
:1015F0000E943F0A84E08D83CE010E948C0ACE01B6
:101600000E94470A82E08E8366E0CE010E943F0A74
:10161000CE01DF91CF910C94370A21E001C0220F57
:101620006A95EAF7DC011C962C931C971A965C933A
:101630004E931997ED91FC910084F185E02D60E0C7
:101640000994FC012485222399F0818592850097D5
:1016500019F4611105C006C0019721F4611102C09F
:10166000258701C015866585CF010E960C94FC096F
:1016700008950F931F93CF93DF93EC018C01025FCA
:101680001F4F6B85C8010E94DF09019761F461E07B
:10169000C8010E94D4091C8260E0C8010E94FC09B4
:1016A00081E090E002C080E090E0DF91CF911F9157
:1016B0000F9108958F92AF92CF92EF920F93CF93A5
:1016C000DF93CDB7DEB7FC016387148615861286DB
:1016D000118681E0982F01C0990F4A95EAF7928B05
:1016E000982F01C0990F2A95EAF7938B982F01C084
:1016F000990F0A95EAF7948B982F01C0990FEA94F5
:10170000EAF7958B982F01C0990FCA94EAF7968B48
:10171000982F01C0990FAA94EAF7978B01C0880F00
:101720008A94EAF7808FDF91CF910F91EF90CF905D
:10173000AF908F9008954F925F926F927F928F92A9
:10174000AF92CF92EF920F931F93CF93DF9300D07E
:101750001F92CDB7DEB73C011A894B885C882B837A
:101760004A8369830E942F0A8AEB91E0F3019183F7
:101770008083C3010E960E94CD092B814A81698125
:10178000C3010E945A0BA201612FC3010F900F9059
:101790000F90DF91CF911F910F91EF90CF90AF906D
:1017A0008F907F906F905F904F900C940D0BFF92F5
:1017B0000F931F93CF93DF93EC01F62E8C01025F02
:1017C0001F4F6A896F29C8010E94FC096A896095C8
:1017D0006F21C801DF91CF911F910F91FF900C9461
:1017E000FC0920E030E050E060FF05C0FC01E20FA2
:1017F000F31F7589572B66952F5F3F4F24303105B6
:1018000099F7413011F4FC014489FC016585652B91
:10181000642B0C94D70B0F931F93CF93DF93EC01A2
:10182000142F062F0F70423011F440E00AC070E010
:1018300084E0759567958A95E1F7CE010E94F10BDA
:10184000412F602FCE01DF91CF911F910F910C940A
:10185000F10B0F931F93CF93DF9300D01F92CDB75F
:10186000DEB78C012B834A8369830E94390B2B815D
:101870004A816981C8010F900F900F90DF91CF913D
:101880001F910F910C94940A1F920F920FB60F9212
:1018900011242F933F938F939F93AF93BF93809186
:1018A000DA029091DB02A091DC02B091DD0230916E
:1018B000D90223E0230F2D3720F40196A11DB11D7D
:1018C00005C026E8230F0296A11DB11D2093D90261
:1018D0008093DA029093DB02A093DC02B093DD02E6
:1018E0008091DE029091DF02A091E002B091E102CE
:1018F0000196A11DB11D8093DE029093DF02A0939B
:10190000E002B093E102BF91AF919F918F913F911F
:101910002F910F900FBE0F901F9018952FB7F8942E
:101920006091DA027091DB028091DC029091DD021D
:101930002FBF08953FB7F8948091DE029091DF02A7
:10194000A091E002B091E10226B5A89B05C02F3F0F
:1019500019F00196A11DB11D3FBF6627782F892F71
:101960009A2F620F711D811D911D42E0660F771F36
:10197000881F991F4A95D1F708958F929F92AF9231
:10198000BF92CF92DF92EF92FF926B017C010E9497
:101990009A0C4B015C01C114D104E104F104F1F093
:1019A0000E94C0140E949A0C681979098A099B093F
:1019B000683E73408105910570F321E0C21AD10899
:1019C000E108F10888EE880E83E0981EA11CB11C86
:1019D000C114D104E104F10429F7DDCFFF90EF90A9
:1019E000DF90CF90BF90AF909F908F9008958230FE
:1019F000910538F0880F991F880F991F0597019757
:101A0000F1F70895789484B5826084BD84B58160CF
:101A100084BD85B5826085BD85B5816085BDEEE6F6
:101A2000F0E0808181608083E1E8F0E010828081D5
:101A300082608083808181608083E0E8F0E0808143
:101A400081608083E1E9F0E0808182608083808131
:101A500081608083E0E9F0E0808181608083E1EC57
:101A6000F0E08081846080838081826080838081D7
:101A700081608083E3ECF0E0808181608083E0EC32
:101A8000F0E0808182608083E2ECF0E08081816020
:101A90008083EAE7F0E080818460808380818260D7
:101AA00080838081816080838081806880830895C5
:101AB000823108F08251E82FF0E0E45BFE4FE491C0
:101AC00080917B00E3FB222720F930E095E0220F94
:101AD000331F9A95E1F78F7D822B80937B00E7700F
:101AE00080910E0120E4829FC0011124E82BE09335
:101AF0007C0080917A00806480937A0080917A00E3
:101B000086FDFCCF809178002091790090E0922BA7
:101B1000089590E0FC013197EF30F105B0F5EA5AF5
:101B2000FF4F0C94FF19809180008F7703C0809144
:101B300080008F7D80938000089580918000877F52
:101B4000F9CF84B58F7702C084B58F7D84BD0895A9
:101B5000809190008F7707C0809190008F7D03C0A7
:101B600080919000877F8093900008958091C000BD
:101B70008F7703C08091C0008F7D8093C00008954F
:101B80008091C200877F8093C2000895CF93DF9336
:101B900090E0FC01E958FE4F2491FC01EA56FE4F0B
:101BA0008491882349F190E0880F991FFC01EF523E
:101BB000FE4FA591B4918D539E4FFC01C591D491D8
:101BC0009FB7611108C0F8948C91209582238C9363
:101BD000888182230AC0623051F4F8948C91322FAC
:101BE000309583238C938881822B888304C0F8945A
:101BF0008C91822B8C939FBFDF91CF9108950F938F
:101C00001F93CF93DF931F92CDB7DEB7282F30E01D
:101C1000F901E85AFE4F8491F901E958FE4F1491F9
:101C2000F901EA56FE4F04910023C9F0882321F000
:101C300069830E94890D6981E02FF0E0EE0FFF1F9C
:101C4000ED53FE4FA591B4919FB7F8948C9161111B
:101C500003C01095812301C0812B8C939FBF0F90EF
:101C6000DF91CF911F910F9108950F931F93762FBE
:101C700090E0FC01E958FE4F6491FC01EA56FE4FEA
:101C8000E4917111762FF0E0EE0FFF1FEB54FE4F41
:101C90008591949189019A013F70472F0E94DD013F
:101CA000611571058105910531F06F5F7F4F8F4F91
:101CB0009F4F9F7003C060E070E0CB011F910F91B8
:101CC00008950E94171C08950E94020D0E94630E41
:101CD00082EE92E00E94F7120E942E06C0E0D0E051
:101CE0000E94CF042097E1F30E940000F9CFCF9229
:101CF000DF92EF92FF920F931F93CF93DF937C01BC
:101D00006A01EB0100E010E00C151D0571F069910E
:101D1000D701ED91FC910190F081E02DC70109956B
:101D2000892B19F00F5F1F4FEFCFC801DF91CF91C3
:101D30001F910F91FF90EF90DF90CF900895611564
:101D4000710581F0DB010D900020E9F7AD014150F4
:101D50005109461B570BDC01ED91FC910280F38188
:101D6000E02D099480E090E00895DC01ED91FC9174
:101D7000DB0114964D915C9115976D917C910280D9
:101D8000F381E02D09940C949F0E615030F0209166
:101D9000F100FC0120830196F8CF289A84E6809315
:101DA000EB0208954091E6025091E7022091E4028F
:101DB0003091E50242175307B4F49091E800957012
:101DC000E1F39091E80092FD19C08093F1008091B9
:101DD000E6029091E70201968F739927892B19F4F7
:101DE0008EEF8093E8008091E6029091E7020196E1
:101DF0009093E7028093E60281E0089580E00895E1
:101E0000CF92DF92EF92FF920F931F93CF93DF93C6
:101E10001F92CDB7DEB7082F162FF42E862F880F0E
:101E20008E5F99830E94D20E83E00E94D20EE02E34
:101E3000C02E9981D92E8C2D8E19811798F4F60118
:101E4000F7FE02C0849101C080810E94D20E082F4B
:101E500080E00E94D20E8023FFEFCF1ADF0A8111AB
:101E6000EACF01C081E00F90DF91CF911F910F91D8
:101E7000FF90EF90DF90CF9008958091D700816020
:101E80008093D70080EA8093D80089B5806189BDAE
:101E900089B5826089BD09B400FEFDCF61E070E0C4
:101EA00080E090E00E94BD0C8091D8008F7C806122
:101EB0008093D8008091E000807F8093E0000895B7
:101EC000CF93DF931F92CDB7DEB71982CE01019673
:101ED0000E941E150E945616BE016F5F7F4F0E9422
:101EE000CF1589810F90DF91CF9108952FB7FC0115
:101EF0002083F89467706093E9000895CF93DF938F
:101F00001F92CDB7DEB7682FCE0101960E94760FE3
:101F10008091F20099819FBF0F90DF91CF9108953A
:101F2000FF920F931F93CF93DF9300D0CDB7DEB70F
:101F3000F62E8A019091EA02992311F057FF03C00F
:101F40008FEF9FEF2BC0682FCE0101967A830E94FE
:101F5000760F8091F20090E0A8017A8180179107B6
:101F60000CF4AC01EF2DF72FF40E84E6FE1639F0D9
:101F7000289A8093EB029091F1009193F7CF41154D
:101F8000510521F08091F200882321F089818FBFD3
:101F9000CA0104C08BE68093E800F8CF0F900F9041
:101FA000DF91CF911F910F91FF900895CF93DF9311
:101FB0001F92CDB7DEB741E050E0BE016F5F7F4FAB
:101FC0000E94900F019719F4898190E002C08FEF71
:101FD0009FEF0F90DF91CF910895CF93DF931F92E2
:101FE000CDB7DEB7682FCE0101960E94760F909193
:101FF000E800892F807295FF04C09091F20080E480
:10200000891B99819FBF0F90DF91CF9108956F92A7
:102010007F928F929F92AF92BF92CF92DF92EF9278
:10202000FF920F931F93CF93DF931F92CDB7DEB72D
:10203000782E7B01C42EB52E8091EA02882369F0A8
:10204000042F152F8AEFD82E872D8072982E9AE3B1
:10205000A92E872D8074882E11C08FEF9FEF57C057
:10206000872D0E94ED0F682E81110CC0DA94A9F320
:1020700061E070E080E090E00E94BD0C0115110568
:1020800079F73BC0282F30E0021713070CF4602EBD
:10209000672DCE0101960E94760F8091E80085FFA2
:1020A00029C0262D30E0021B130B992039F06A94C9
:1020B0008FEF6816B1F01092F100F9CFF701862D7D
:1020C00077FE07C0815058F094919093F1003196BB
:1020D000F9CF815020F091919093F100FACFE20E68
:1020E000F31E8091E80085FF0FC00115110511F462
:1020F00081100AC089818FBFC1CF5D9A84E6809329
:10210000EC028C2D9B2D03C0A092E800F3CF0F9022
:10211000DF91CF911F910F91FF90EF90DF90CF90C3
:10212000BF90AF909F908F907F906F900895109286
:10213000E9001092E7021092E6029093E502809384
:10214000E4020895CF92DF92FF920F931F93CF93F3
:10215000DF9300D0CDB7DEB7F82E8A016B010115F1
:102160001105B1F0F601F7FE02C0849101C0808133
:1021700049835A830E94D20E01501109FFEFCF1AF2
:10218000DF0A49815A818111EACF8FEF9FEF01C0A9
:10219000CA010F900F90DF91CF911F910F91FF9087
:1021A000DF90CF900895BF92CF92DF92EF92FF928F
:1021B0000F931F93CF93DF936C018B01EB013BEFE8
:1021C000B32E2097C1F07E01C134D1051CF020E46C
:1021D000E22EF12C8091E80082FFFCCFC8018C1B1D
:1021E0009D0B6E2D8C0D9D1D0E94C50EB092E800BA
:1021F000CE19DF09E6CFC801DF91CF911F910F9172
:10220000FF90EF90DF90CF90BF9008951F920F92B4
:102210000FB60F921124DF92EF92FF920F931F934C
:102220002F933F934F935F936F937F938F939F93DE
:10223000AF93BF93EF93FF93CF93DF93CDB7DEB709
:102240006C97DEBFCDBF1092E9008091E80083FF5C
:1022500023C168E0CE0145960E94C50E82EF8093AF
:10226000E8003D8937FF05C08091E80080FFFCCF82
:1022700003C08EEF8093E800832F807609F0F0C0D2
:102280002E894F89D88C21110CC0303829F48091C7
:10229000E9028093F10002C01092F1001092F10067
:1022A000F4C0842F90E09D29213049F43111EDC014
:1022B000019709F0EAC08091E9028D7F0AC02330BE
:1022C00059F43111E2C0019709F0DFC08091E902B1
:1022D00082608093E902D9C0253041F48091E80002
:1022E00080FFFCCF40684093E300CFC0263009F068
:1022F0008DC0EB8CFC8C22E0D2122CC080E090E0F0
:102300000E9497100E94600F99E08E010F5F1F4F8F
:10231000F801292F11922A95E9F79983DA8291E041
:102320009E8390EA98879AEF99872091E6023091F0
:10233000E702275F3F4F3C832B838D83C7010E94B9
:10234000971049E050E0B80180E00E94A2100E947E
:10235000600F9BC0C7010E9497100E945616BE01D5
:102360006B5E7F4F0E94F815009719F00CF08DC03E
:1023700090C081E0D8120EC08B8D9C8D089719F407
:1023800081E08093E3028091E30281112FC061EF2D
:1023900071E031C0E3E0DE127CC08F89882349F10F
:1023A000823029F440E86DE08FE092E01CC081307B
:1023B00029F440E86BE083E092E015C0833009F037
:1023C00068C00E9456168E010F5F1F4FB8010E9411
:1023D0001716F80101900020E9F73197E01BF10B87
:1023E00040E06E2FC8010E94000F4DC06FED71E0FC
:1023F00002C06DE172E06115710509F44AC0FB018C
:10240000449150E080E80E94A2103FC0273009F4B8
:1024100040C0283021F481E08093F10036C029309B
:10242000A1F53370B1F5E0E1F1E081E021E036E3C0
:102430009081992361F08093E9002093EB009191C2
:102440009093EC003093ED008F5F873089F78EE733
:102450008093EA001092EA008F898093EA0215C007
:102460008B8D9C8D0E949710898D811105C0CE01A6
:1024700045960E94291507C00E945616BE016B5E44
:102480007F4F0E943616882321F08EEF8093E8005C
:1024900003C081E28093EB006C960FB6F894DEBF28
:1024A0000FBECDBFDF91CF91FF91EF91BF91AF9163
:1024B0009F918F917F916F915F914F913F912F915C
:1024C0001F910F91FF90EF90DF900F900FBE0F9034
:1024D0001F9018958093E9008091F200882319F0ED
:1024E0008AE38093E80008951F920F920FB60F922F
:1024F00011242F933F934F935F936F937F938F9309
:102500009F93AF93BF93CF93EF93FF93C091E1005D
:102510008091E100837F8093E1008093E100C3FF1D
:102520000FC01092E90081E08093EB001092EC0064
:1025300082E38093ED001092EA0288E08093F0003D
:10254000C2FF19C083E00E946A128091EC028823C6
:1025500039F08091EC0281508093EC02882389F15C
:102560008091EB02882339F08091EB0281508093B7
:10257000EB02882341F1C4FF10C08091E2008E7EFF
:1025800081608093E2008091E1008F7E8093E10082
:102590008091E8028E7E806111C0C0FF16C08091DC
:1025A000E2008E7E80618093E2008091E1008E7E69
:1025B0008093E1008091E8028E7E81608093E80242
:1025C00004C05D98CDCF2898D6CFFF91EF91CF91E1
:1025D000BF91AF919F918F917F916F915F914F913B
:1025E0003F912F910F900FBE0F901F901895109252
:1025F000EA021092E9021092E8020E943D0F8091D7
:10260000E1008E7E8093E1008DE08093E200559A98
:10261000209A5D982898EEEFFFE7859194918B3F83
:102620009C4D19F481E080933D030895FC01808165
:1026300091810C94BE1ACF93DF93EC01888199812C
:10264000009711F00E94BE1A198218821D821C8206
:102650001B821A82DF91CF9108950F931F93CF931E
:10266000DF93EC018B016F5F7F4F888199810E941E
:102670004D1B009731F0998388831B830A8381E087
:1026800001C080E0DF91CF911F910F910895CF930A
:10269000DF93EC0188819981892B29F08A819B81C4
:1026A0008617970760F4CE010E942D13882341F00E
:1026B0008C819D81892B19F4E881F981108281E058
:1026C000DF91CF910895EF92FF920F931F93CF93D5
:1026D000DF93EC017B018A01BA010E94471381114B
:1026E00004C0CE010E941B1307C01D830C83B701D9
:1026F000888199810E94251CCE01DF91CF911F9185
:102700000F91FF90EF900895FC01118210821382C7
:102710001282158214826115710559F0FB01019036
:102720000020E9F7AF0141505109461B570B0C94AB
:1027300063130895CF93DF93EC01FB01861797078E
:1027400061F0608171816115710529F044815581C5
:102750000E94631302C00E941B13CE01DF91CF9130
:102760000895FC0111821082138212821582148254
:102770000C949A13EF92FF920F931F93CF93DF93D2
:10278000EC017B010C811D816115710511F480E064
:1027900016C04115510591F0040F151FB8010E9494
:1027A00047138823A1F3288139818C819D81B7014A
:1027B000820F931F0E94251C1D830C8381E0DF91F3
:1027C000CF911F910F91FF90EF900895EF92FF929C
:1027D0000F931F93CF93DF93CDB7DEB72E970FB62E
:1027E000F894DEBF0FBECDBF7C01CB01BA012AE059
:1027F0008E010F5F1F4FA8010E942C1CF801019051
:102800000020E9F7AF0141505109401B510BB801BD
:10281000C7010E94BA132E960FB6F894DEBF0FBE02
:10282000CDBFDF91CF911F910F91FF90EF90089551
:10283000EF92FF920F931F93CF93DF93CDB7DEB745
:102840002D970FB6F894DEBF0FBECDBF7C01CB0134
:10285000BA012AE08E010F5F1F4FA8010E943B1CA6
:10286000F80101900020E9F7AF0141505109401BE8
:10287000510BB801C7010E94BA132D960FB6F894F8
:10288000DEBF0FBECDBFDF91CF911F910F91FF90A3
:10289000EF900895EF92FF920F931F93CF93DF93E2
:1028A000CDB7DEB764970FB6F894DEBF0FBECDBFCD
:1028B0007C01CB01BA018E010F5F1F4F22E044E083
:1028C0000E94051AFC0101900020E9F7AF01415078
:1028D0005109481B590BBC01C7010E94BA136496E9
:1028E0000FB6F894DEBF0FBECDBFDF91CF911F9121
:1028F0000F91FF90EF900895CF93DF93EC01611556
:10290000710569F0FB0101900020E9F7AF0141502A
:102910005109461B570B0E94BA13811103C0CE0107
:102920000E941B13CE01DF91CF910895CF93DF93C7
:10293000EC010E94E613811103C0CE010E941B131B
:10294000CE01DF91CF910895CF93DF93EC010E94E8
:102950001814811103C0CE010E941B13CE01DF9118
:10296000CF910895CF93DF93EC010E944A14811117
:1029700003C0CE010E941B13CE01DF91CF910895B9
:102980000895CF93DF931F92CDB7DEB76983DC0143
:10299000ED91FC910280F381E02D41E050E0BE0119
:1029A0006F5F7F4F09950F90DF91CF910895CF937F
:1029B000DF93EC018C859D8597FF05C082E00E9426
:1029C000D60F9D878C878C859D85DF91CF9108954B
:1029D00083E00C946A12FC018485958597FD06C0FE
:1029E00082E00E947E0F90E00196089582E00E94AE
:1029F0007E0F90E00895FC018485958597FD05C0C4
:102A00002FEF3FEF35872487089582E00C94D60F8F
:102A1000CF93DF93EC0180912101882331F083E093
:102A20000E9407101816190634F081E090E09B838D
:102A30008A8380E090E0DF91CF910895FC012081AE
:102A40002E5F208342E450E061E272E080E80C9463
:102A5000A210FC0121818081813A59F4213209F0D0
:102A60004BC047E050E06AE171E080E00E94A210B4
:102A70005EC0813209F040C0233289F4838190E046
:102A8000982F88273281832BA0E0B0E08093160135
:102A900090931701A0931801B09319010FC0203231
:102AA00039F467E070E08AE191E00E94D31009C038
:102AB000223221F482818093210103C02D7F2032B4
:102AC000B1F580913D03811103C0E0E0F8E002C060
:102AD000EEEFFAE080911A0190911B01A0911C0188
:102AE000B0911D01803B9440A105B10511F5809185
:102AF000210180FF03C01DC080E00895EE3F2AE061
:102B0000F20731F0808191819093FF0A8093FE0A51
:102B100087E797E7918380832BE088E190E00FB609
:102B2000F894A895809360000FBE2093600081E028
:102B3000089588E10FB6F8948093600010926000C9
:102B40000FBEA895EE3F8AE0F80739F08091FE0AA3
:102B50009091FF0A91838083EACF1092FF0A10922E
:102B6000FE0AE5CF1092F0021092EF0288EE93E099
:102B7000A0E0B0E08093F1029093F202A093F30200
:102B8000B093F4028AEC91E09093EE028093ED0210
:102B90008FEF9FEF9093FA028093F9020895EF92DE
:102BA000FF920F931F93CF93DF937B01FC01C281B0
:102BB000D38100E010E0209781F0E881F981028064
:102BC000F381E02DB701CE01099597FD08C0080FEC
:102BD000191F0884D985C02DEECFC80102C08FEF20
:102BE0009FEFDF91CF911F910F91FF90EF9008958C
:102BF0000F931F93CF93DF938B01FC01C281D3818D
:102C0000209771F0E881F9810480F581E02DB80109
:102C1000CE010995009731F40884D985C02DF0CFF5
:102C200080E090E0DF91CF911F910F9108950F9375
:102C30001F93CF93DF938B01FC01C281D381209737
:102C400071F0E881F9810680F781E02DB801CE01AD
:102C50000995080F111D0884D985C02DF0CFF80102
:102C60001082DF91CF911F910F9108950F931F93C1
:102C7000CF93DF938B01FC01C281D381209771F048
:102C8000E881F9810190F081E02DB801CE0109952C
:102C9000811106C00884D985C02DF0CF80E001C025
:102CA00081E0DF91CF911F910F91089580914203B0
:102CB00081110DC082E080933E0384E080933F0346
:102CC000109241031092400381E0809342038EE30F
:102CD00093E008955058BB27AA270ED04DC13ED18E
:102CE00030F043D120F031F49F3F11F41EF433C192
:102CF0000EF4E095E7FB29C1E92F4FD180F3BA1715
:102D0000620773078407950718F071F49EF567C191
:102D10000EF4E0950B2EBA2FA02D0B01B9019001F6
:102D20000C01CA01A0011124FF27591B99F0593F3A
:102D300050F4503E68F11A16F040A22F232F342F82
:102D40004427585FF3CF469537952795A795F040D0
:102D50005395C9F77EF41F16BA0B620B730B840BE5
:102D6000BAF09150A1F0FF0FBB1F661F771F881F9D
:102D7000C2F70EC0BA0F621F731F841F48F48795F5
:102D800077956795B795F7959E3F08F0B3CF9395E4
:102D9000880F08F09927EE0F9795879508950CD026
:102DA000EBC0E3D040F0DAD030F021F45F3F19F00F
:102DB000CCC0511115C1CFC0F0D098F39923C9F3FD
:102DC0005523B1F3951B550BBB27AA276217730731
:102DD000840738F09F5F5F4F220F331F441FAA1FE5
:102DE000A9F333D00E2E3AF0E0E830D091505040A5
:102DF000E695001CCAF729D0FE2F27D0660F771F53
:102E0000881FBB1F261737074807AB07B0E809F034
:102E1000BB0B802DBF01FF2793585F4F2AF09E3FC9
:102E2000510568F092C0DCC05F3FECF3983EDCF3E4
:102E3000869577956795B795F7959F5FC9F7880F42
:102E4000911D9695879597F90895E1E0660F771F94
:102E5000881FBB1F621773078407BA0720F0621B25
:102E6000730B840BBA0BEE1F88F7E095089504D01E
:102E70006894B111B5C0089598D088F09F5790F02C
:102E8000B92F9927B751A0F0D1F0660F771F881F8F
:102E9000991F1AF0BA95C9F712C0B13081F09FD0CE
:102EA000B1E008959CC0672F782F8827B85F39F06C
:102EB000B93FCCF3869577956795B395D9F73EF4EE
:102EC00090958095709561957F4F8F4F9F4F089596
:102ED000E89409C097FB3EF49095809570956195B4
:102EE0007F4F8F4F9F4F9923A9F0F92F96E9BB276A
:102EF0009395F695879577956795B795F111F8CFE6
:102F0000FAF4BB0F11F460FF1BC06F5F7F4F8F4F50
:102F10009F4F16C0882311F096E911C0772321F046
:102F20009EE8872F762F05C0662371F096E8862FDE
:102F300070E060E02AF09A95660F771F881FDAF735
:102F4000880F9695879597F9089597F99F6780E878
:102F500070E060E008959FEF80EC089500240A94EB
:102F60001616170618060906089500240A94121664
:102F70001306140605060895092E0394000C11F497
:102F8000882352F0BB0F40F4BF2B11F460FF04C044
:102F90006F5F7F4F8F4F9F4F089557FD9058440F9D
:102FA000551F59F05F3F71F04795880F97FB991FA8
:102FB00061F09F3F79F08795089512161306140665
:102FC000551FF2CF4695F1DF08C0161617061806F2
:102FD000991FF1CF86957105610508940895E894CD
:102FE000BB2766277727CB0197F908950BD0C4CF6D
:102FF000B5DF28F0BADF18F0952309F0A6CFABCFE4
:103000001124EECFCADFA0F3959FD1F3950F50E0C6
:10301000551F629FF001729FBB27F00DB11D639F8A
:10302000AA27F00DB11DAA1F649F6627B00DA11D30
:10303000661F829F2227B00DA11D621F739FB00DD6
:10304000A11D621F839FA00D611D221F749F332746
:10305000A00D611D231F849F600D211D822F762FDF
:103060006A2F11249F5750408AF0E1F088234AF0DC
:10307000EE0FFF1FBB1F661F771F881F9150504028
:10308000A9F79E3F510570F060CFAACF5F3FECF3E8
:10309000983EDCF3869577956795B795F795E79514
:1030A0009F5FC1F7FE2B880F911D9695879597F925
:1030B0000895FA01EE0FFF1F30962105310599F1B1
:1030C0006115710561F48038BFE39B0749F168948D
:1030D0009038810561F08038BFEF9B0741F099235C
:1030E00042F5FF3FE1053105210511F1E89408940F
:1030F000E795D901AA2329F4AB2FBE2FF85FD0F3AF
:1031000010C0FF5F70F4A695E0F7F73950F019F0A2
:10311000FF3A38F49F779F930CD00F9007FC90589C
:1031200008953EF018CF60E070E080E89FE30895D6
:103130004FE79F775F934F933F932F939ED02F91AD
:103140003F914F915F9152DF05C019F40EF0FDCE13
:1031500046CF01CF2ADFC8F39638C0F707F80F92A1
:10316000E8942BE33AEA48EB5FE74EDF0F920F92C9
:103170000F924DB75EB70F92C0D0EAECF0E016D0D8
:103180004F915F91EF91FF91E595EE1FFF1F49F081
:10319000FE57E0684427EE0F441FFA95E1F741958A
:1031A000550B32D00F9007FE26C00895DF93CF93C2
:1031B0001F930F93FF92EF92DF927B018C01689433
:1031C00005C0DA2EEF011EDFFE01E894A5912591DE
:1031D000359145915591AEF3EF018EDDFE019701DA
:1031E000A801DA9479F7DF90EF90FF900F911F918B
:1031F000CF91DF9108959B01AC0160E070E080E821
:103200009FE3CDCDA2CEACC0D0DEE8F39923D9F3B5
:10321000940F511DBBF39150504094F059F0882306
:1032200032F0660F771F881F91505040C1F79E3FC4
:10323000510544F7880F911D9695879597F9089544
:103240005F3FACF0983E9CF0BB27869577956795DD
:10325000B79508F4B1609395C1F7BB0F58F711F417
:1032600060FFE8CF6F5F7F4F8F4F9F4FE3CFB8CEA8
:103270000EF076C070CE689468CE97DEC8F39923BE
:10328000D1F3C6F3DF93CF931F930F93FF92C92F10
:10329000DD2788232AF02197660F771F881FDAF72A
:1032A00020E030E040E85FEB9FE3883920F0803E8B
:1032B00030F021968F770FDDE2EFF0E003C00BDDF9
:1032C000EFE1F1E073DF8B01BE01EC01FB2E6F57E4
:1032D00071097595771F880B990BFCDD28E132E7A2
:1032E00041E35FE38FDEAF2D9801AE01FF900F91B8
:1032F0001F91CF91DF9100DD3FCEFA01DC01AA0FD3
:10330000BB1F9B01AC01BF5728F42227332744275A
:1033100050781FC0B75188F4AB2F002446953795DD
:103320002795011CA395D2F3002069F0220F331FCB
:10333000441FB395DAF30DD0CDCC61307105A0E810
:103340008A07B94630F49B01AC01662777278827A6
:103350009078309621F020833183428353830895FF
:103360009F3F31F0915020F4879577956795B795F9
:10337000880F911D9695879597F90895A1E21A2EC9
:10338000AA1BBB1BFD010DC0AA1FBB1FEE1FFF1F09
:10339000A217B307E407F50720F0A21BB30BE40B59
:1033A000F50B661F771F881F991F1A9469F76095A0
:1033B0007095809590959B01AC01BD01CF0108955A
:1033C000052E97FB1EF400940E94F71957FD07D0B5
:1033D0000E94BE1907FC03D04EF40C94F7195095C7
:1033E0004095309521953F4F4F4F5F4F08959095F1
:1033F0008095709561957F4F8F4F9F4F0895EE0F89
:10340000FF1F0590F491E02D0994EF920F931F9305
:10341000CF93DF93E80147FF02C034E101C034E0FD
:10342000E42FFF27E7FDF095F7FF03C0F195E19545
:10343000F109E32E022F2E2FAE010E945D1CCE015A
:10344000DF91CF911F910F91EF900895CF93DF936C
:103450008230910510F482E090E0E0914C03F0910D
:103460004D0320E030E0A0E0B0E0309739F140813A
:10347000518148175907B8F04817590771F48281EC
:103480009381109729F013969C938E9312972CC0DA
:1034900090934D0380934C0327C02115310531F0E3
:1034A0004217530718F0A901DB0101C0EF019A018F
:1034B000BD01DF010280F381E02DD7CF2115310559
:1034C000F9F0281B390B2430310580F48A819B8167
:1034D0006115710521F0FB019383828304C09093F1
:1034E0004D0380934C03FE01329644C0FE01E20F6F
:1034F000F31F8193919322503109398328833AC075
:1035000020914A0330914B03232B41F42091020177
:103510003091030130934B0320934A032091000123
:10352000309101012115310541F42DB73EB740918D
:10353000040150910501241B350BE0914A03F091E1
:103540004B03E217F307A0F42E1B3F0B2817390794
:1035500078F0AC014E5F5F4F2417350748F04E0FEF
:103560005F1F50934B0340934A038193919302C092
:10357000E0E0F0E0CF01DF91CF910895CF93DF93AA
:10358000009709F487C0FC01329713821282C09120
:103590004C03D0914D03209781F420813181280F75
:1035A000391F80914A0390914B038217930779F555
:1035B000F0934B03E0934A036DC0DE0120E030E05E
:1035C000AE17BF0750F412964D915C9113979D0171
:1035D0004115510509F1DA01F3CFB383A28340818C
:1035E0005181840F951F8A179B0771F48D919C91CF
:1035F0001197840F951F02969183808312968D9167
:103600009C911397938382832115310529F4F093BC
:103610004D03E0934C033EC0D9011396FC93EE9307
:1036200012974D915D91A40FB51FEA17FB0779F42E
:1036300080819181840F951F0296D90111969C93E8
:103640008E938281938113969C938E931297E0E0E0
:10365000F0E08A819B81009719F0FE01EC01F9CF1F
:10366000CE01029628813981820F931F20914A034F
:1036700030914B032817390769F4309729F41092D9
:103680004D0310924C0302C013821282D0934B035D
:10369000C0934A03DF91CF910895A0E0B0E0E3E545
:1036A000FBE10C94C71EEC01CB01209719F40E949A
:1036B000261AB8C0FE01E60FF71F9E0122503109FD
:1036C000E217F30708F4ACC0D9010D911C911197D2
:1036D00006171707B8F00530110508F49FC0A801B8
:1036E000445051094617570708F498C00250110971
:1036F000061B170B019311936D937C93CF010E94CE
:10370000BE1A8CC05B01A01AB10A4E01800E911E38
:10371000A0914C03B0914D03612C712C60E070E0DE
:10372000109709F449C0A815B905C9F5ED90FC90AA
:103730001197670142E0C40ED11CCA14DB0478F172
:1037400047018A189B08640142E0C40ED11C1296FE
:10375000BC9012971396AC91B5E0CB16D10440F013
:10376000B282A38391828082D9018D939C9309C0F8
:103770000E5F1F4F0E0D1F1DF90111830083EB2DEE
:10378000FA2F6115710531F0DB011396FC93EE936E
:10379000129744C0F0934D03E0934C033FC06D91EA
:1037A0007C9111976616770608F43B01BD011296CD
:1037B0000D90BC91A02DB4CF60914A0370914B0342
:1037C00068157905E9F468167906D0F4409100018E
:1037D000509101014115510541F44DB75EB760911B
:1037E000040170910501461B570BE417F507C0F45F
:1037F000F0934B03E0934A03F901918380830EC059
:103800000E94261A7C01009759F0A801BE010E946F
:103810001C1CCE010E94BE1AC70104C0CE0102C00A
:1038200080E090E0CDB7DEB7EEE00C94E31E81E0DF
:1038300090E0F8940C94FA1EFB01DC0102C00190A8
:103840000D9241505040D8F70895FB01DC010190E2
:103850000D920020E1F70895BB272A3051F49923F7
:1038600042F4BDE290958095709561957F4F8F4FA2
:103870009F4F0C943C1CBB27FA01A62F62177105C1
:1038800081059105330B30FB66F0AA27660F771F81
:10389000881F991FAA1FA21710F0A21B639538500A
:1038A000A9F7A05DAA3308F0A95DA19336F7B1117D
:1038B000B1931082CA010C94B31E6F927F929F92B3
:1038C000AF92BF92CF92DF92EF92FF920F931F932E
:1038D000CF93DF93CDB7DEB729970FB6F894DEBF4D
:1038E0000FBECDBF6A01B22E102F0C3320F4FF247F
:1038F000F394F00E02C04CE3F42E0F2D27E0AE013E
:103900004F5F5F4F0E94DB1D7981272F2970213087
:1039100031F0E1FC06C0E0FC06C060E005C06DE2ED
:1039200003C06BE201C060E2AE2DA07173FF36C030
:10393000662311F084E001C083E08B1510F4B81AFF
:1039400001C0B12CA1110BC0F6018B2D90E2882390
:1039500019F091938150FBCFCB0CD11CB12C662375
:1039600031F0F601608396012F5F3F4F6901C60178
:103970000396E2FE05C02EE4F601208331E404C084
:103980002EE6F601208331E631832283FC012B2DC4
:1039900030E22223F1F131932150FBCF72FF40C07E
:1039A000662311F084E001C083E08B1510F4B81A8F
:1039B00001C0B12CA1110BC0F6018B2D90E2882320
:1039C00019F091938150FBCFCB0CD11CB12C662305
:1039D00031F0F601608396012F5F3F4F6901C60108
:1039E0000396E2FE07C029E4F60120832EE421833A
:1039F00026E406C029E6F60120832EE6218326E68A
:103A00002283FC012B2D30E2222319F03193215027
:103A1000FBCFFC01EB0DF11D10828EEF9FEFB7C0C5
:103A2000B1E0611101C0B0E04B2F50E0181619064B
:103A300024F49C012F5F3F4F02C021E030E0240FAF
:103A4000351F112329F0412F50E04F5F5F4F02C017
:103A500040E050E0420F531F2B2D30E04217530738
:103A600014F4B41A01C0B12C2E2D287159F4F601AA
:103A70002B2D30E2222319F031932150FBCFCB0CB8
:103A8000D11CB12CBB2331F0F601608396012F5F6E
:103A90003F4F6901A1110BC0F6012B2D30E322230A
:103AA00019F031932150FBCFCB0CD11CB12CF80E67
:103AB0000A81372F3071A32E74FF03C0013309F43C
:103AC000FA941F142CF42F2D293018F028E001C08F
:103AD00021E0682F392F97FF02C060E030E0462FC9
:103AE000532F612C712C3EE2932EBC01621B710995
:103AF0009B01DC01A41BB50BE1E0F0E0EC0FFD1F26
:103B0000AE0FBF1FE12EF12CF194E194F1084F3F6D
:103B1000FFEF5F0731F4F6019082B6016F5F7F4FD0
:103B20006B01841795074CF02417350734F4BD0159
:103B3000660D771DFB01118101C010E34150510951
:103B4000FFEF6F1A7F0AB6016F5F7F4F4E155F055B
:103B500024F0F60110836B01DACF4817590739F4C6
:103B6000063320F4053319F4A11001C011E3F60166
:103B70001083FB018B2D90E2882319F091938150E3
:103B8000FBCFFB01EB0DF11D108280E090E0299648
:103B90000FB6F894DEBF0FBECDBFDF91CF911F915E
:103BA0000F91FF90EF90DF90CF90BF90AF909F90DC
:103BB0007F906F900895283008F027E03327DA01CE
:103BC000990F311D87FD916000966105710539F4EB
:103BD00032602E5F3D9330E32A95E1F708959F3FD1
:103BE00030F080387105610509F03C5F3C5F3D9322
:103BF000913008F08068911DDF93CF931F930F934E
:103C0000FF92EF92192F987F9695E92F96959695AA
:103C1000E90FFF27E354FD4F99273327EE24FF24B4
:103C2000A701E70105900894079428F4360FE71ED2
:103C3000F81E491F511D660F771F881F991F069494
:103C4000A1F70590079428F4E70EF81E491F561FA8
:103C5000C11D770F881F991F661F0694A1F7059055
:103C6000079428F4F80E491F561FC71FD11D880F4F
:103C7000991F661F771F0694A1F70590079420F4FB
:103C8000490F561FC71FD81F990F661F771F881F20
:103C90000694A9F784911095177041F0D695C795B1
:103CA00057954795F794E7941A95C1F7E3E6F2E044
:103CB00068941590159135916591959105907FE2E5
:103CC0007395E118F10A430B560BC90BD009C0F7E5
:103CD000E10CF11E431F561FC91FD01D7EF4703327
:103CE00011F48A95E6CFE894015030F0080F0AF4F9
:103CF0000027021708F4202F2395022F7A3328F08B
:103D000079E37D932A95E9F710C07D932A9589F68A
:103D1000069497956795379517951794E118F10ACA
:103D2000430B560BC90BD00998F023957E917395E0
:103D30007A3308F070E37C932013B8F77E917061BA
:103D40007D9330F0839571E37D9370E32A95E1F7DD
:103D50001124EF90FF900F911F91CF91DF91992740
:103D600087FD90950895DC01FC01672F7191772301
:103D7000E1F7329704C07C916D9370836291AE1726
:103D8000BF07C8F308952F923F924F925F926F92B0
:103D90007F928F929F92AF92BF92CF92DF92EF92DB
:103DA000FF920F931F93CF93DF93CDB7DEB7CA1B5C
:103DB000DB0B0FB6F894DEBF0FBECDBF09942A8887
:103DC000398848885F846E847D848C849B84AA842F
:103DD000B984C884DF80EE80FD800C811B81AA81BC
:103DE000B981CE0FD11D0FB6F894DEBF0FBECDBF87
:103DF000ED01089513E0C4E6D3E004C0FE010E9483
:0E3E0000011A2296C636D107C9F7F894FFCFF3
:103E0E0000004E03800003000A00010005000100BF
:103E1E00C18081000000FFFFFFFF00E100000000F5
:103E2E00000053656E313A202000636D2020202063
:103E3E00200053656E323A2020004D6573737A650B
:103E4E0069743A2020006D732020202020004D65DB
:103E5E007373756E67656E2F733A20200056302E81
:103E6E00312E320050696E67204974004175746FAF
:103E7E00723A004D61726B757320477574656B7580
:103E8E006E7374004C61622E2050726F662E204845
:103E9E00616C6C65720000000000E906BC069106BC
:103EAE009906AC06BB0600000000240A770E940AA1
:103EBE00220A230A610E00000000240A770E290C44
:103ECE000D0B210B0B0C00000000C1140815EB1498
:063EDE00FB14D714E814E8
:00000001FF
