:100000000C94E1000C9409010C9409010C94090171
:100010000C9409010C9409010C9409010C94090138
:100020000C9409010C9409010C94CA0C0C945C0BFF
:100030000C9409010C9409010C9409010C94090118
:100040000C9409010C9409010C9409010C94090108
:100050000C9409010C9409010C9409010C943C07BF
:100060000C9409010C9409010C9409010C940901E8
:100070000C9409010C9409010C9409010C940901D8
:100080000C9409010C9409010C9409010C940901C8
:100090000C9498030C9409010C9409010C94090127
:1000A0000C9409010C9409010C9409015C085F0887
:1000B0004E085208580880088008800863086708BE
:1000C0006B087108750880087B08000000020009B1
:1000D0000F0000030401000C0000000000000000FD
:1000E0000000000000000000000408020110408031
:1000F000401020408040800802040180402010020F
:10010000011080102040402004040404040304056E
:1001100002020202040302020202060606060606A4
:100120000404020202040400000000250028002B41
:10013000002E00310012010002EF0201404123377E
:100140008000010102030112010002000000404191
:1001500023378000010102030141726475696E6FEB
:10016000204C4C430041726475696E6F204D696389
:10017000726F0004030904080B0002020201000967
:100180000400000102020000052400100105240102
:10019000010104240206052406000107058103105D
:1001A000004009040100020A0000000705020240A5
:1001B000000007058302400000000C01AE02E20EC1
:1001C000340111241FBECFEFDAE0DEBFCDBF11E056
:1001D000A0E0B1E0E4EDF3E202C005900D92A23997
:1001E000B107D9F722E0A2E9B1E001C01D92A63E15
:1001F000B207E1F711E0C0ECD1E004C02297FE01A4
:100200000E949C0FCA3BD107C9F70E94BA080C9400
:10021000DD110C94000008958F92AF92CF92EF926F
:100220000F9369E171E08BEA91E00E94DA0D1F9271
:100230001F9283E08F9387E0882E96E0A92E25E019
:10024000C22E34E0E32E00E021E042E067E282E9E2
:1002500091E00E9493060F900F900F900F91EF90F6
:10026000CF90AF908F9008958BEA91E00C946C0D35
:1002700020E044E064E182E991E00E94210782E904
:1002800091E00E942F0582E991E00E94460560E21C
:1002900071E082E991E00E94190940E06CE082E996
:1002A00091E00E944D056BEA71E082E991E00E94C5
:1002B0000B0941E060E082E991E00E944D0568E2AF
:1002C00071E082E991E00E94190942E060E082E970
:1002D00091E00E944D056FE271E082E991E00E9499
:1002E000190943E060E082E991E00E944D0560E475
:1002F00071E082E991E00E94190960E971E080E013
:1003000090E00E94A90768EE73E080E090E00C9412
:10031000A9078091E10190E02091E201821B9109FF
:1003200008952091E2018091E101281750F4E22F15
:10033000F0E0ED51FE4F808190E02F5F2093E201CD
:1003400008958FEF9FEF0895E091E2018091E10120
:10035000E81730F4F0E0ED51FE4F808190E0089511
:100360008FEF9FEF08950895CF92DF92EF92FF9263
:100370000F931F93CF93DF937C01CB018A012091D0
:10038000BD01222389F0EB016B01C40ED51ECC15F3
:10039000DD0569F06991D701ED91FC910190F08143
:1003A000E02DC7010995F3CF642F0E946F03C801A8
:1003B000DF91CF911F910F91FF90EF90DF90CF9041
:1003C0000895CF93DF931F92CDB7DEB76983209155
:1003D000BD012223D1F02091BE01203240F021E066
:1003E00030E0FC013383228380E090E015C08091EF
:1003F000BF01E82FF0E0E054FE4F998190838F5FBA
:100400008093BF018093BE0105C061E0CE010196DB
:100410000E946F0381E090E00F90DF91CF910895EB
:10042000FC011382128248EE53E060E070E04483E6
:1004300055836683778386E591E091838083089571
:100440001092E2011092E1011092BF011092BE01E0
:100450000C94B20281E08093BD016093E0011092A0
:10046000BF011092BE0108950F93062F21E0409125
:10047000BE0160EC71E08091E0010E9418031092CF
:10048000BF011092BE011092BD010F9108958F928D
:100490009F92AF92BF92CF92DF92EF92FF920F9313
:1004A0001F93CF93DF93EC01F62ED42E4801590110
:1004B000EE2019F10E942A021E2D143008F013E0DC
:1004C0001150B8F0E881F98128E0129FB0011124A1
:1004D000A501940104C056954795379527956A95CF
:1004E000D2F7CA01B9010190F081E02DCE01099542
:1004F000E7CF60E0CE010E9434024D2D413208F07A
:1005000040E22C2D63EE71E08F2D0E94D0021092FC
:10051000E2018093E101DF91CF911F910F91FF9054
:10052000EF90DF90CF90BF90AF909F908F90089505
:10053000CF92EF920F931F93C22EE12C00E010E0B8
:1005400098010E9447021F910F91EF90CF9008955C
:1005500021E00C94980261E00C94340281EB91E06C
:100560000C9410021092700281E080936E0210923F
:100570006D0261E082E00E94810861E083E00E94F8
:100580008108E9EBF0E080818E7F808380818D7F20
:10059000808388E48093B80085E48093BC0008954C
:1005A000413208F043C0909170029111FCCF91E06C
:1005B0009093700220936E022FEF2093030210920B
:1005C0004802240F2093470290936F0290916F028C
:1005D000880F892B80936F0280916D02813061F4C6
:1005E00010926D0280916F028093BB008091BC00DD
:1005F00083FDF8CF85EC01C085EE8093BC0080912F
:1006000070028130E1F380914802841710F4409128
:10061000480229E432E0FB01D9018A2F821B8417AA
:1006200018F48D918193F9CF842F089580E0089577
:100630000F93413208F04AC0909170029111FCCFA3
:1006400092E09093700200936E029FEF90930302EA
:100650001092480240934702FB0169E472E0DB011B
:100660009A2F961B941718F491919D93F9CF10929D
:100670006F0290916F02880F892B80936F02809197
:100680006D02813061F410926D0280916F0280934F
:10069000BB008091BC0083FDF8CF85EC01C085EEE6
:1006A0008093BC00222321F0809170028230E1F31C
:1006B000809103028F3F61F080910302803251F0FC
:1006C00080910302803341F483E007C081E005C0DC
:1006D00080E003C082E001C084E00F9108956132A0
:1006E00098F420917002243089F460932502FC0173
:1006F00087E292E0DC012A2F281B261718F42191AB
:100700002D93F9CF80E0089581E0089582E0089567
:1007100085ED8093BC008091BC0084FDFCCF1092DD
:100720007002089585EC8093BC00109270020895C9
:100730001F920F920FB60F9211242F933F934F9356
:100740005F936F937F938F939F93AF93BF93EF9339
:10075000FF938091B900887F803609F49EC078F5B8
:10076000883209F45DC090F4803109F456C038F441
:10077000882309F4F5C0883009F44FC0F5C08831EA
:1007800009F44EC0803209F45FC0EEC0803409F431
:100790006AC058F4803309F457C0883309F0E4C0C4
:1007A000809303020E949203DFC0803509F44FC09A
:1007B000883509F45DC0883409F0D6C0D3C08839C3
:1007C00009F4C4C0A8F4883709F467C038F488363F
:1007D00009F463C0803709F460C0C6C0883809F4E2
:1007E000B5C0803909F45FC0803809F0BDC05BC076
:1007F000803B09F483C038F4803A09F466C0883A33
:1008000009F47CC0B1C0803C09F4A4C0883C09F460
:10081000A1C0883B09F487C0A7C080916F0210C0B7
:100820009091480280914702981770F5E091480234
:1008300081E08E0F80934802F0E0E75BFD4F8081FE
:100840008093BB0085EC83C0809303028BC0E09152
:10085000480281E08E0F809348028091BB00F0E057
:10086000E75BFD4F808390914802809147026BC007
:10087000E091480281E08E0F809348028091BB0096
:10088000F0E0E75BFD4F808380916E0281116AC0CA
:1008900081E080936D0284EA5EC083E08093700201
:1008A00010920402CFCF80910402803208F04EC033
:1008B000E091040281E08E0F809304028091BB00DE
:1008C000F0E0EB5FFD4F8083BDCF0E9492038091EB
:1008D0000402803230F4E0910402F0E0EB5FFD4F5F
:1008E00010826091040270E0E0916902F0916A0266
:1008F00085E092E009951092040236C084E080936E
:1009000070021092260210922502E0916B02F09183
:100910006C02099580912502811105C081E08093C8
:10092000250210922702E091260281E08E0F80932B
:100930002602F0E0E95DFD4F80818093BB0090913D
:10094000260280912502981708F47CCF85E88093D1
:10095000BC000AC085EC8093BC001092700204C0F9
:10096000109203020E948803FF91EF91BF91AF9113
:100970009F918F917F916F915F914F913F912F91B7
:100980000F900FBE0F901F901895FC0112828FEFF1
:100990008183108213820895FC018381882331F0C2
:1009A000611103C08FEF8183089511820895CF9361
:1009B000DF93EC016A8381EB91E00E94200241E029
:1009C0006A8181EB91E00E94A80291E0811101C04F
:1009D00090E09B8381EB91E00E94910188838B8161
:1009E00090E0DF91CF910895CF93DF93EC018B815D
:1009F0008823A9F089818095862388836A8181EB89
:100A000091E00E942A02688181EB91E00E94E1015D
:100A100081EB91E00E94AB02282F30E002C020E081
:100A200030E081E090E0232B11F080E090E0DF9156
:100A3000CF91089508950895DC01ED91FC91028411
:100A4000F385E02D41E0099581E090E00895FC01F7
:100A50001382128226E631E0318320830895DC017F
:100A6000ED91FC910084F185E02D6FEF0994DC019C
:100A7000ED91FC910284F385E02D40E0099461E062
:100A80000E94370580ED97E00C94E30762E00E9436
:100A9000370580ED97E00C94E307CF93DF93CDB754
:100AA000DEB728970FB6F894DEBF0FBECDBF1D820C
:100AB00020E42E8334E13F8334E5388719822A838A
:100AC00020E12B8320E52C83FC012781421710F0C5
:100AD0004FEF420FFC01308550E0FE01E40FF51F9F
:100AE000303121F4243011F4218101C02581260FF9
:100AF0002068622F28960FB6F894DEBF0FBECDBFD8
:100B0000DF91CF910C943705FC016581262F24607D
:100B100025836C600C943705CF93DF93EC01423052
:100B200018F08C8188608C834F836887222329F09A
:100B3000413019F48C8184608C8364E670E080E03D
:100B400090E00E94A9076C8164FD31C0E881F981C1
:100B50000284F385E02D42E063E0CE01099584E94B
:100B600091E10E94E307E881F9810284F385E02D99
:100B700042E063E0CE01099584E991E10E94E30738
:100B8000E881F9810284F385E02D42E063E0CE0143
:100B9000099586E990E00E94E307E881F9810284E3
:100BA000F385E02D42E062E0CE01099516C0606257
:100BB000CE010E94370584E991E10E94E3076C8130
:100BC0006062CE010E94370586E990E00E94E3074B
:100BD0006C816062CE010E9437056C816062CE013B
:100BE0000E94370584E08D83CE010E948405CE01EA
:100BF0000E943F0582E08E8366E0CE010E943705A9
:100C0000CE01DF91CF910C942F0521E001C0220F7E
:100C10006A95EAF7DC011C962C931C971A965C9354
:100C20004E931997ED91FC910084F185E02D60E0E1
:100C30000994FC012485222399F0818592850097EF
:100C400019F4611105C006C0019721F4611102C0B9
:100C5000258701C015866585CF010E960C94F40496
:100C600008950F931F93CF93DF93EC018C01025FE4
:100C70001F4F6B85C8010E94D704019761F461E0A2
:100C8000C8010E94CC041C8260E0C8010E94F404E8
:100C900081E090E002C080E090E0DF91CF911F9171
:100CA0000F9108958F92AF92CF92EF920F93CF93BF
:100CB000DF93CDB7DEB7FC016387148615861286F5
:100CC000118681E0982F01C0990F4A95EAF7928B1F
:100CD000982F01C0990F2A95EAF7938B982F01C09E
:100CE000990F0A95EAF7948B982F01C0990FEA940F
:100CF000EAF7958B982F01C0990FCA94EAF7968B63
:100D0000982F01C0990FAA94EAF7978B01C0880F1A
:100D10008A94EAF7808FDF91CF910F91EF90CF9077
:100D2000AF908F9008954F925F926F927F928F92C3
:100D3000AF92CF92EF920F931F93CF93DF9300D098
:100D40001F92CDB7DEB73C011A894B885C882B8394
:100D50004A8369830E94270586E791E0F301918326
:100D60008083C3010E960E94C5042B814A8169814C
:100D7000C3010E945206A201612FC3010F900F9080
:100D80000F90DF91CF911F910F91EF90CF90AF9087
:100D90008F907F906F905F904F900C940506FF921C
:100DA0000F931F93CF93DF93EC01F62E8C01025F1C
:100DB0001F4F6A896F29C8010E94F4046A896095EF
:100DC0006F21C801DF91CF911F910F91FF900C947B
:100DD000F40420E030E050E060FF05C0FC01E20FC9
:100DE000F31F7589572B66952F5F3F4F24303105D0
:100DF00099F7413011F4FC014489FC016585652BAC
:100E0000642B0C94CF060F931F93CF93DF93EC01C9
:100E1000142F062F0F70423011F440E00AC070E02A
:100E200084E0759567958A95E1F7CE010E94E90601
:100E3000412F602FCE01DF91CF911F910F910C9424
:100E4000E9060F931F93CF93DF9300D01F92CDB786
:100E5000DEB78C012B834A8369830E9431062B8184
:100E60004A816981C8010F900F900F90DF91CF9157
:100E70001F910F910C948C051F920F920FB60F9239
:100E800011242F933F938F939F93AF93BF938091A0
:100E9000720290917302A0917402B0917502309128
:100EA000710223E0230F2D3720F40196A11DB11DFF
:100EB00005C026E8230F0296A11DB11D20937102E3
:100EC0008093720290937302A0937402B0937502A0
:100ED0008091760290917702A0917802B091790288
:100EE0000196A11DB11D8093760290937702A09385
:100EF0007802B0937902BF91AF919F918F913F910A
:100F00002F910F900FBE0F901F9018953FB7F89438
:100F10008091760290917702A0917802B091790247
:100F200026B5A89B05C02F3F19F00196A11DB11D44
:100F30003FBF6627782F892F9A2F620F711D811D61
:100F4000911D42E0660F771F881F991F4A95D1F7C0
:100F500008958F929F92AF92BF92CF92DF92EF92BD
:100F6000FF926B017C010E9486074B015C01C1145A
:100F7000D104E104F104F1F00E94F00D0E94860713
:100F8000681979098A099B09683E734081059105B2
:100F900070F321E0C21AD108E108F10888EE880E4A
:100FA00083E0981EA11CB11CC114D104E104F1041A
:100FB00029F7DDCFFF90EF90DF90CF90BF90AF90FB
:100FC0009F908F9008958230910538F0880F991F77
:100FD000880F991F05970197F1F70895789484B5C4
:100FE000826084BD84B5816084BD85B5826085BD25
:100FF00085B5816085BDEEE6F0E08081816080830B
:10100000E1E8F0E0108280818260808380818160ED
:101010008083E0E8F0E0808181608083E1E9F0E0B6
:10102000808182608083808181608083E0E9F0E05C
:10103000808181608083E1ECF0E080818460808346
:10104000808182608083808181608083E3ECF0E036
:10105000808181608083E0ECF0E080818260808329
:10106000E2ECF0E0808181608083EAE7F0E080815B
:1010700084608083808182608083808181608083BE
:10108000808180688083089590E0FC013197EF3083
:10109000F105B0F5EA5AFF4F0C949A0F8091800049
:1010A0008F7703C0809180008F7D809380000895AA
:1010B00080918000877FF9CF84B58F7702C084B597
:1010C0008F7D84BD0895809190008F7707C08091B7
:1010D00090008F7D03C080919000877F8093900067
:1010E00008958091C0008F7703C08091C0008F7DEC
:1010F0008093C00008958091C200877F8093C200D2
:1011000008950F931F93CF93DF931F92CDB7DEB750
:10111000282F30E0F901E653FF4F8491F901E751A0
:10112000FF4F1491F901E85FFE4F04910023C9F0CD
:10113000882321F069830E9444086981E02FF0E050
:10114000EE0FFF1FE95DFE4FA591B4919FB7F89494
:101150008C91611103C01095812301C0812B8C9368
:101160009FBF0F90DF91CF911F910F9108950E9423
:10117000911108950E94EE070E94B9088AE792E053
:101180000E944D0D0E943801C0E0D0E00E940B018A
:101190002097E1F30E940000F9CFCF92DF92EF9207
:1011A000FF920F931F93CF93DF937C016A01EB01B2
:1011B00000E010E00C151D0571F06991D701ED916B
:1011C000FC910190F081E02DC7010995892B19F060
:1011D0000F5F1F4FEFCFC801DF91CF911F910F918C
:1011E000FF90EF90DF90CF9008956115710581F029
:1011F000DB010D900020E9F7AD0141505109461B7C
:10120000570BDC01ED91FC910280F381E02D0994F4
:1012100080E090E00895DC01ED91FC91DB011496F3
:101220004D915C9115976D917C910280F381E02D39
:1012300009940C94F508615030F02091F100FC0104
:1012400020830196F8CF289A84E68093830208953C
:1012500040917E0250917F0220917C0230917D026C
:1012600042175307B4F49091E8009570E1F3909120
:10127000E80092FD19C08093F10080917E02909168
:101280007F0201968F739927892B19F48EEF809333
:10129000E80080917E0290917F02019690937F02F8
:1012A00080937E0281E0089580E00895CF92DF92DE
:1012B000EF92FF920F931F93CF93DF931F92CDB7BF
:1012C000DEB7082F162FF42E862F880F8E5F998396
:1012D0000E94280983E00E942809E02EC02E9981EF
:1012E000D92E8C2D8E19811798F4F601F7FE02C0C5
:1012F000849101C080810E942809082F80E00E940B
:1013000028098023FFEFCF1ADF0A8111EACF01C03D
:1013100081E00F90DF91CF911F910F91FF90EF909F
:10132000DF90CF9008958091D70081608093D7009F
:1013300080EA8093D80089B5806189BD89B58260D3
:1013400089BD09B400FEFDCF61E070E080E090E06F
:101350000E94A9078091D8008F7C80618093D8007B
:101360008091E000807F8093E0000895CF93DF9329
:101370001F92CDB7DEB71982CE0101960E944E0EA4
:101380000E94860FBE016F5F7F4F0E94FF0E898112
:101390000F90DF91CF9108952FB7FC012083F8942F
:1013A00067706093E9000895CF93DF931F92CDB7E4
:1013B000DEB7682FCE0101960E94CC098091F20021
:1013C00099819FBF0F90DF91CF910895FF920F9366
:1013D0001F93CF93DF9300D0CDB7DEB7F62E8A01EF
:1013E00090918202992311F057FF03C08FEF9FEF76
:1013F0002BC0682FCE0101967A830E94CC09809180
:10140000F20090E0A8017A81801791070CF4AC01FA
:10141000EF2DF72FF40E84E6FE1639F0289A80930C
:1014200083029091F1009193F7CF4115510521F07E
:101430008091F200882321F089818FBFCA0104C006
:101440008BE68093E800F8CF0F900F90DF91CF915B
:101450001F910F91FF900895CF93DF931F92CDB707
:10146000DEB741E050E0BE016F5F7F4F0E94E609AA
:10147000019719F4898190E002C08FEF9FEF0F90E0
:10148000DF91CF910895CF93DF931F92CDB7DEB751
:10149000682FCE0101960E94CC099091E800892F17
:1014A000807295FF04C09091F20080E4891B9981BD
:1014B0009FBF0F90DF91CF9108956F927F928F928F
:1014C0009F92AF92BF92CF92DF92EF92FF920F93D3
:1014D0001F93CF93DF931F92CDB7DEB7782E7B019A
:1014E000C42EB52E80918202882369F0042F152F17
:1014F0008AEFD82E872D8072982E9AE3A92E872DF9
:101500008074882E11C08FEF9FEF57C0872D0E94E7
:10151000430A682E81110CC0DA94A9F361E070E0EF
:1015200080E090E00E94A9070115110579F73BC002
:10153000282F30E0021713070CF4602E672DCE0120
:1015400001960E94CC098091E80085FF29C0262DD4
:1015500030E0021B130B992039F06A948FEF681664
:10156000B1F01092F100F9CFF701862D77FE07C098
:10157000815058F094919093F1003196F9CF8150B9
:1015800020F091919093F100FACFE20EF31E80913A
:10159000E80085FF0FC00115110511F481100AC084
:1015A00089818FBFC1CF5D9A84E6809384028C2DA0
:1015B0009B2D03C0A092E800F3CF0F90DF91CF9155
:1015C0001F910F91FF90EF90DF90CF90BF90AF9061
:1015D0009F908F907F906F9008951092E9001092E5
:1015E0007F0210927E0290937D0280937C02089588
:1015F000CF92DF92FF920F931F93CF93DF9300D090
:10160000CDB7DEB7F82E8A016B0101151105B1F0D7
:10161000F601F7FE02C0849101C0808149835A839C
:101620000E94280901501109FFEFCF1ADF0A4981F2
:101630005A818111EACF8FEF9FEF01C0CA010F904D
:101640000F90DF91CF911F910F91FF90DF90CF907E
:101650000895BF92CF92DF92EF92FF920F931F9364
:10166000CF93DF936C018B01EB013BEFB32E2097FF
:10167000C1F07E01C134D1051CF020E4E22EF12C32
:101680008091E80082FFFCCFC8018C1B9D0B6E2D62
:101690008C0D9D1D0E941B09B092E800CE19DF0938
:1016A000E6CFC801DF91CF911F910F91FF90EF908E
:1016B000DF90CF90BF9008951F920F920FB60F92B8
:1016C0001124DF92EF92FF920F931F932F933F937A
:1016D0004F935F936F937F938F939F93AF93BF933A
:1016E000EF93FF93CF93DF93CDB7DEB76C97DEBF59
:1016F000CDBF1092E9008091E80083FF23C168E02C
:10170000CE0145960E941B0982EF8093E8003D8937
:1017100037FF05C08091E80080FFFCCF03C08EEF4B
:101720008093E800832F807609F0F0C02E894F89DE
:10173000D88C21110CC0303829F48091810280931B
:10174000F10002C01092F1001092F100F4C0842F59
:1017500090E09D29213049F43111EDC0019709F045
:10176000EAC0809181028D7F0AC0233059F4311183
:10177000E2C0019709F0DFC080918102826080930E
:101780008102D9C0253041F48091E80080FFFCCF70
:1017900040684093E300CFC0263009F08DC0EB8C49
:1017A000FC8C22E0D2122CC080E090E00E94ED0A76
:1017B0000E94B60999E08E010F5F1F4FF801292F93
:1017C00011922A95E9F79983DA8291E09E8390EA53
:1017D00098879AEF998720917E0230917F02275F48
:1017E0003F4F3C832B838D83C7010E94ED0A49E064
:1017F00050E0B80180E00E94F80A0E94B6099BC040
:10180000C7010E94ED0A0E94860FBE016B5E7F4FEA
:101810000E94280F009719F00CF08DC090C081E055
:10182000D8120EC08B8D9C8D089719F481E080939F
:101830007B0280917B0281112FC067E471E031C08F
:10184000E3E0DE127CC08F89882349F1823029F4DD
:1018500040E86DE085E691E01CC0813029F440E865
:101860006BE089E591E015C0833009F068C00E9403
:10187000860F8E010F5F1F4FB8010E94470FF801BE
:1018800001900020E9F73197E01BF10B40E06E2F4B
:10189000C8010E9456094DC065E371E002C063E7CC
:1018A00071E06115710509F44AC0FB01449150E0F3
:1018B00080E80E94F80A3FC0273009F440C0283071
:1018C00021F481E08093F10036C02930A1F5337016
:1018D000B1F5E7E0F1E081E021E036E39081992382
:1018E00061F08093E9002093EB0091919093EC00DC
:1018F0003093ED008F5F873089F78EE78093EA00A1
:101900001092EA008F898093820215C08B8D9C8D86
:101910000E94ED0A898D811105C0CE0145960E9475
:10192000590E07C00E94860FBE016B5E7F4F0E945A
:10193000660F882321F08EEF8093E80003C081E2D8
:101940008093EB006C960FB6F894DEBF0FBECDBF50
:10195000DF91CF91FF91EF91BF91AF919F918F91C7
:101960007F916F915F914F913F912F911F910F91B7
:10197000FF90EF90DF900F900FBE0F901F90189583
:101980008093E9008091F200882319F08AE3809324
:10199000E80008951F920F920FB60F9211242F9313
:1019A0003F934F935F936F937F938F939F93AF93E7
:1019B000BF93CF93EF93FF93C091E1008091E1003B
:1019C000837F8093E1008093E100C3FF0FC01092FA
:1019D000E90081E08093EB001092EC0082E38093B9
:1019E000ED001092820288E08093F000C2FF19C0DF
:1019F00083E00E94C00C80918402882339F080919A
:101A00008402815080938402882389F1809183022B
:101A1000882339F080918302815080938302882348
:101A200041F1C4FF10C08091E2008E7E81608093FE
:101A3000E2008091E1008F7E8093E100809180023E
:101A40008E7E806111C0C0FF16C08091E2008E7E44
:101A500080618093E2008091E1008E7E8093E100BE
:101A6000809180028E7E81608093800204C05D98A8
:101A7000CDCF2898D6CFFF91EF91CF91BF91AF9165
:101A80009F918F917F916F915F914F913F912F9196
:101A90000F900FBE0F901F90189510928202109217
:101AA0008102109280020E9493098091E1008E7E53
:101AB0008093E1008DE08093E200559A209A5D9832
:101AC0002898EEEFFFE7859194918B3F9C4D19F498
:101AD00081E08093D5020895FC01808191810C946E
:101AE0003810CF93DF93EC0188819981009711F032
:101AF0000E943810198218821D821C821B821A8251
:101B0000DF91CF9108950F931F93CF93DF93EC0153
:101B10008B016F5F7F4F888199810E94C71000976A
:101B200031F0998388831B830A8381E001C080E0C0
:101B3000DF91CF911F910F910895CF93DF93EC0127
:101B400088819981892B29F08A819B818617970743
:101B500060F4CE010E94830D882341F08C819D8129
:101B6000892B19F4E881F981108281E0DF91CF910E
:101B70000895EF92FF920F931F93CF93DF93EC01A1
:101B80007B018A01BA010E949D0D811104C0CE0122
:101B90000E94710D07C01D830C83B7018881998154
:101BA0000E949F11CE01DF91CF911F910F91FF9065
:101BB000EF900895FC011182108213821282158227
:101BC00014826115710559F0FB0101900020E9F7BD
:101BD000AF0141505109461B570B0C94B90D0895A4
:101BE0000895CF93DF931F92CDB7DEB76983DC01F1
:101BF000ED91FC910280F381E02D41E050E0BE01C7
:101C00006F5F7F4F09950F90DF91CF910895CF932C
:101C1000DF93EC018C859D8597FF05C082E00E94D3
:101C20002C0A9D878C878C859D85DF91CF910895A7
:101C300083E00C94C00CFC018485958597FD06C05B
:101C400082E00E94D40990E00196089582E00E940B
:101C5000D40990E00895FC018485958597FD05C021
:101C60002FEF3FEF35872487089582E00C942C0AEC
:101C7000CF93DF93EC0180911801882331F083E04A
:101C80000E945D0A1816190634F081E090E09B83EB
:101C90008A8380E090E0DF91CF910895FC0120815C
:101CA0002E5F208342E450E067E771E080E80C9407
:101CB000F80AFC0121818081813A59F4213209F02E
:101CC0004BC047E050E061E171E080E00E94F80A1B
:101CD0005EC0813209F040C0233289F4838190E0F4
:101CE000982F88273281832BA0E0B0E080930D01EC
:101CF00090930E01A0930F01B09310010FC02032FA
:101D000039F467E070E081E191E00E94290B09C09D
:101D1000223221F482818093180103C02D7F20326A
:101D2000B1F58091D502811103C0E0E0F8E002C076
:101D3000EEEFFAE08091110190911201A091130150
:101D4000B0911401803B9440A105B10511F580913B
:101D5000180180FF03C01DC080E00895EE3F2AE017
:101D6000F20731F0808191819093FF0A8093FE0AFF
:101D700087E797E7918380832BE088E190E00FB6B7
:101D8000F894A895809360000FBE2093600081E0D6
:101D9000089588E10FB6F894809360001092600077
:101DA0000FBEA895EE3F8AE0F80739F08091FE0A51
:101DB0009091FF0A91838083EACF1092FF0A1092DC
:101DC000FE0AE5CF109288021092870288EE93E017
:101DD000A0E0B0E08093890290938A02A0938B02E6
:101DE000B0938C0286E891E09093860280938502FE
:101DF0008FEF9FEF90939202809391020895EF925C
:101E0000FF920F931F93CF93DF937B01FC01C2815D
:101E1000D38100E010E0209781F0E881F981028011
:101E2000F381E02DB701CE01099597FD08C0080F99
:101E3000191F0884D985C02DEECFC80102C08FEFCD
:101E40009FEFDF91CF911F910F91FF90EF90089539
:101E50000F931F93CF93DF938B01FC01C281D3813A
:101E6000209771F0E881F9810480F581E02DB801B7
:101E7000CE010995009731F40884D985C02DF0CFA3
:101E800080E090E0DF91CF911F910F9108950F9323
:101E90001F93CF93DF938B01FC01C281D3812097E5
:101EA00071F0E881F9810680F781E02DB801CE015B
:101EB0000995080F111D0884D985C02DF0CFF801B0
:101EC0001082DF91CF911F910F9108950F931F936F
:101ED000CF93DF938B01FC01C281D381209771F0F6
:101EE000E881F9810190F081E02DB801CE010995DA
:101EF000811106C00884D985C02DF0CF80E001C0D3
:101F000081E0DF91CF911F910F9108958091DA02C6
:101F100081110DC082E08093D60284E08093D702C5
:101F20001092D9021092D80281E08093DA0286EDF5
:101F300092E00895EE0FFF1F0590F491E02D0994B3
:101F4000CF93DF938230910510F482E090E0E0912E
:101F5000E402F091E50220E030E0A0E0B0E030974C
:101F600039F14081518148175907B8F0481759078E
:101F700071F482819381109729F013969C938E932C
:101F800012972CC09093E5028093E40227C021159C
:101F9000310531F04217530718F0A901DB0101C0E8
:101FA000EF019A01BD01DF010280F381E02DD7CF5F
:101FB00021153105F9F0281B390B2430310580F447
:101FC0008A819B816115710521F0FB0193838283D6
:101FD00004C09093E5028093E402FE01329644C06F
:101FE000FE01E20FF31F819391932250310939834F
:101FF00028833AC02091E2023091E302232B41F47E
:1020000020910201309103013093E3022093E20218
:1020100020910001309101012115310541F42DB7C6
:102020003EB74091040150910501241B350BE0910E
:10203000E202F091E302E217F307A0F42E1B3F0B3C
:102040002817390778F0AC014E5F5F4F241735072A
:1020500048F04E0F5F1F5093E3024093E2028193DA
:10206000919302C0E0E0F0E0CF01DF91CF910895BD
:10207000CF93DF93009709F487C0FC013297138256
:102080001282C091E402D091E502209781F4208170
:102090003181280F391F8091E2029091E30282176B
:1020A000930779F5F093E302E093E2026DC0DE015D
:1020B00020E030E0AE17BF0750F412964D915C91CE
:1020C00013979D014115510509F1DA01F3CFB3834F
:1020D000A28340815181840F951F8A179B0771F459
:1020E0008D919C911197840F951F02969183808307
:1020F00012968D919C9113979383828321153105BC
:1021000029F4F093E502E093E4023EC0D90113966E
:10211000FC93EE9312974D915D91A40FB51FEA17B2
:10212000FB0779F480819181840F951F0296D90174
:1021300011969C938E938281938113969C938E9398
:102140001297E0E0F0E08A819B81009719F0FE0190
:10215000EC01F9CFCE01029628813981820F931FBD
:102160002091E2023091E3022817390769F4309791
:1021700029F41092E5021092E40202C01382128246
:10218000D093E302C093E202DF91CF910895A0E0E3
:10219000B0E0EDECF0E10C94AA11EC01CB0120973A
:1021A00019F40E94A00FB8C0FE01E60FF71F9E01B0
:1021B00022503109E217F30708F4ACC0D9010D91A0
:1021C0001C91119706171707B8F00530110508F490
:1021D0009FC0A801445051094617570708F498C0FA
:1021E00002501109061B170B019311936D937C93F9
:1021F000CF010E9438108CC05B01A01AB10A4E01B9
:10220000800E911EA091E402B091E502612C712C28
:1022100060E070E0109709F449C0A815B905C9F548
:10222000ED90FC901197670142E0C40ED11CCA14D6
:10223000DB0478F147018A189B08640142E0C40E70
:10224000D11C1296BC9012971396AC91B5E0CB16A8
:10225000D10440F0B282A38391828082D9018D9310
:102260009C9309C00E5F1F4F0E0D1F1DF9011183B6
:102270000083EB2DFA2F6115710531F0DB01139608
:10228000FC93EE93129744C0F093E502E093E402CE
:102290003FC06D917C9111976616770608F43B015B
:1022A000BD0112960D90BC91A02DB4CF6091E202B9
:1022B0007091E30268157905E9F468167906D0F49F
:1022C00040910001509101014115510541F44DB774
:1022D0005EB76091040170910501461B570BE4172E
:1022E000F507C0F4F093E302E093E202F901918371
:1022F00080830EC00E94A00F7C01009759F0A801B6
:10230000BE010E949611CE010E943810C70104C080
:10231000CE0102C080E090E0CDB7DEB7EEE00C94D5
:10232000C61181E090E0F8940C94DD11FB01DC0112
:1023300002C001900D9241505040D8F70895FB0122
:10234000DC0101900D920020E1F708952F923F9259
:102350004F925F926F927F928F929F92AF92BF92B5
:10236000CF92DF92EF92FF920F931F93CF93DF9361
:10237000CDB7DEB7CA1BDB0B0FB6F894DEBF0FBEBE
:10238000CDBF09942A88398848885F846E847D840B
:102390008C849B84AA84B984C884DF80EE80FD800D
:1023A0000C811B81AA81B981CE0FD11D0FB6F89483
:1023B000DEBF0FBECDBFED01089511E0C0ECD1E04E
:1023C00004C0FE010E949C0F2296C23CD107C9F7AF
:0423D000F894FFCFAF
:1023D4000000E602800000C18081000000FFFFFFD2
:1023E400FF00E100000000000056302E312E3100C5
:1023F40050696E67204974004175746F723A004DDC
:1024040061726B757320477574656B756E737400B8
:102414004C61622E2050726F662E2048616C6C6590
:10242400720000000000E101B40189019101A401DE
:10243400B301000000001C05CD088C051A051B051E
:10244400B708000000001C05CD0821070506190681
:10245400030700000000F10D380E1B0E2B0E070EB3
:02246400180E50
:00000001FF
