:100000000C946C010C9494010C9494010C94940144
:100010000C9494010C9494010C9494010C9494010C
:100020000C9494010C9494010C94E20F0C94740EB3
:100030000C9494010C9494010C9494010C949401EC
:100040000C9494010C9494010C9494010C949401DC
:100050000C9494010C9494010C9494010C94E30975
:100060000C9494010C9494010C9494010C949401BC
:100070000C9494010C9494010C9494010C949401AC
:100080000C9494010C9494010C9494010C9494019C
:100090000C943F060C9494010C9494010C949401DC
:1000A0000C9494010C9494010C9494010F0B120B7A
:1000B000010B050B0B0B330B330B330B160B1A0B0E
:1000C0001E0B240B280B330B2E0B00000002000923
:1000D0000F0000030401000C0000000000000000FD
:1000E0000000000000000000000408020110408031
:1000F000401020408040800802040180402010020F
:10010000011080102040402004040404040304056E
:1001100002020202040302020202060606060606A4
:100120000404020202040400000000230026002947
:10013000002C002F0000000000250028002B002EBE
:1001400000310000000000240027002A002D0030AC
:100150000012010002EF020140412337800001013B
:100160000203011201000200000040412337800019
:10017000010102030141726475696E6F204C4C43AA
:100180000041726475696E6F204D6963726F00047F
:10019000030904080B000202020100090400000127
:1001A00002020000052400100105240101010424BD
:1001B000020605240600010705810310004009041A
:1001C0000100020A000000070502024000000705C6
:1001D000830240000000407A10F35A00A0724E18CB
:1001E000090010A5D4E80000E87648170000E40BE9
:1001F00054020000CA9A3B000000E1F505000080AF
:10020000969800000040420F000000A08601000008
:1002100000102700000000E8030000000064000058
:100220000000000A00000000000100000000002C97
:1002300076D888DC674F0823DFC1DFAE59E1B1B75C
:1002400096E5E3E453C63AE651997696E8E6C28429
:1002500026EB898C9B62ED407C6FFCEFBC9C9F4041
:10026000F2BAA56FA5F490055A2AF75C936B6CF966
:10027000676DC11BFCE0E40D47FEF520E6B500D03C
:10028000ED902E0300943577050080841E08000051
:10029000204E0A000000C80C333333330F986E121F
:1002A000831141EF8D2114893BE65516CFFEE6DB25
:1002B00018D1844B381BF77C1D901DA4BBE424206F
:1002C0003284725E228100C9F124ECA1E53D270051
:1002D000AD035505E012D50311241FBECFEFDAE0C0
:1002E000DEBFCDBF11E0A0E0B1E0E4EDF3E302C07A
:1002F00005900D92A23DB107D9F723E0A2EDB1E040
:1003000001C01D92A234B207E1F712E0C6EDD2E0BF
:1003100004C02297FE010E94F314C03DD107C9F723
:100320000E94D20B0C94DD190C940000CF92DF9246
:10033000EF92FF920F931F93E82FF92F05C0015002
:1003400011092109310961F1908196239417B9F3BC
:1003500005C0015011092109310911F1908196233D
:100360009413F7CFC12CD12CE12CF12C0AC08FEFC4
:10037000C81AD80AE80AF80A0C151D052E053F050B
:1003800079F080818623841791F36C2D7D2D8E2D3D
:100390009F2D1F910F91FF90EF90DF90CF900895C8
:1003A00060E070E080E090E01F910F91FF90EF908F
:1003B000DF90CF90089561E082E10E94340B60E00D
:1003C00083E10E94340B61E084E10E94340B60E021
:1003D00085E10E94340B60E082E10E946D0B60E0D9
:1003E00084E10C946D0BF89461E082E10E946D0B46
:1003F0008AE090E00E94960A60E082E10E946D0B24
:1004000020E432E44FE050E061E083E10E94A30B7E
:100410000E9400146093E6017093E7018093E80165
:100420009093E901789420E030E040E05FE3609150
:10043000E6017091E7018091E8019091E9010E9445
:100440008E146093E6017093E7018093E801909326
:10045000E9012DEC3CEC48EE51E40E9498136093C6
:10046000EA017093EB018093EC019093ED016091B0
:10047000080170910901882777FD8095982F0E94C7
:100480005C0AF89461E084E10E946D0B8AE090E0E0
:100490000E94960A60E084E10E946D0B20E432E441
:1004A0004FE050E061E085E10E94A30B0E94001440
:1004B0006093DE017093DF018093E0019093E1018E
:1004C000789420E030E040E05FE36091DE017091DD
:1004D000DF018091E0019091E1010E948E14609310
:1004E000DE017093DF018093E0019093E1012DEC38
:1004F0003CEC48EE51E40E9498136093E201709343
:10050000E3018093E4019093E5010895CF92DF9297
:10051000EF92FF92CF93DF93CDB7DEB72C970FB654
:10052000F894DEBF0FBECDBF0E942D0A6093DA01A2
:100530007093DB018093DC019093DD0180910601D3
:1005400090910701019711F40E94F3010E942D0A76
:10055000C090DA01D090DB01E090DC01F090DD0189
:100560006C197D098E099F096093D6017093D7019C
:100570008093D8019093D9010E9400142FE632E1B4
:1005800043E85AE30E948E149B01AC0160E070E0E6
:1005900080E89FE30E9498136093D2017093D30187
:1005A0008093D4019093D5018EEE91E00E94ED07E7
:1005B000C090EA01D090EB01E090EC01F090ED01E9
:1005C0006DE171E0CE0107960E94F210BE01695FF5
:1005D0007F4FCE0101960E941F11B701A601CE01E7
:1005E00001960E94E01165E271E00E94B811BC0121
:1005F0008EEE91E00E94230CCE0101960E948410A1
:10060000CE0107960E94841041E060E08EEE91E0FA
:100610000E94F407C090E201D090E301E090E40171
:10062000F090E5016DE271E0CE0107960E94F210B4
:10063000BE01695F7F4FCE0101960E941F11B70175
:10064000A601CE0101960E94E01165E271E00E94D0
:10065000B811BC018EEE91E00E94230CCE010196F0
:100660000E948410CE0107960E94841042E060E050
:100670008EEE91E00E94F407C090D601D090D70191
:10068000E090D801F090D90165E371E0CE010796C2
:100690000E94F210BE01695F7F4FCE0101960E9459
:1006A0001F11B701A601CE0101960E94D21161E48B
:1006B00071E00E94B811BC018EEE91E00E94230C03
:1006C000CE0101960E948410CE0107960E948410EC
:1006D00043E060E08EEE91E00E94F407C090D2010A
:1006E000D090D301E090D401F090D50169E471E09D
:1006F000CE0107960E94F210BE01695F7F4FCE01C6
:1007000001960E941F11B701A601CE0101960E9419
:10071000E0116BE271E00E94B811BC018EEE91E035
:100720000E94230CCE0101960E948410CE010796F0
:100730000E94841064EF71E080E090E00E945C0A07
:100740002C960FB6F894DEBF0FBECDBFDF91CF91D0
:10075000FF90EF90DF90CF9008958F92AF92CF925D
:10076000EF920F9368E571E087E092E00E94F2104B
:100770001F921F9283E08F9387E0882E96E0A92E28
:1007800025E0C22E34E0E32E00E021E042E067E203
:100790008EEE91E00E943A090F900F900F900F910A
:1007A000EF90CF90AF908F90089587E092E00C94F7
:1007B00084108091060190910701019711F40E9425
:1007C000DB0120E044E064E18EEE91E00E94C80984
:1007D0008EEE91E00E94D6078EEE91E00E94ED072A
:1007E0006FE571E08EEE91E00E94310C40E06CE02C
:1007F0008EEE91E00E94F40767E072E08EEE91E0E9
:100800000E94230C41E060E08EEE91E00E94F4072C
:1008100067E671E08EEE91E00E94310C42E060E00C
:100820008EEE91E00E94F4076EE671E08EEE91E0AC
:100830000E94310C43E060E08EEE91E00E94F407EC
:100840006FE771E08EEE91E00E94310C60ED77E091
:1008500080E090E00E945C0A8EEE91E00C94E60746
:1008600080913D0290E020913E02821B9109089503
:1008700020913E0280913D02281750F4E22FF0E0D3
:10088000E15CFD4F808190E02F5F20933E02089550
:100890008FEF9FEF0895E0913E0280913D02E817AF
:1008A00030F4F0E0E15CFD4F808190E008958FEF3F
:1008B0009FEF08950895CF92DF92EF92FF920F93EA
:1008C0001F93CF93DF937C01CB018A012091190202
:1008D000222389F0EB016B01C40ED51ECC15DD057A
:1008E00069F06991D701ED91FC910190F081E02DC3
:1008F000C7010995F3CF642F0E941606C801DF9146
:10090000CF911F910F91FF90EF90DF90CF900895BE
:10091000CF93DF931F92CDB7DEB769832091190281
:100920002223D1F020911A02203240F021E030E061
:10093000FC013383228380E090E015C080911B028C
:10094000E82FF0E0E45EFD4F998190838F5F809304
:100950001B0280931A0205C061E0CE0101960E943D
:10096000160681E090E00F90DF91CF910895FC0191
:100970001382128248EE53E060E070E044835583B6
:100980006683778385E991E091838083089510924F
:100990003E0210923D0210921B0210921A020C9419
:1009A000590581E08093190260933C0210921B026A
:1009B00010921A0208950F93062F21E040911A0217
:1009C0006CE172E080913C020E94BF0510921B0214
:1009D00010921A02109219020F9108958F929F920D
:1009E000AF92BF92CF92DF92EF92FF920F931F933D
:1009F000CF93DF93EC01F62ED42E48015901EE205F
:100A000019F10E94D1041E2D143008F013E011508A
:100A1000B8F0E881F98128E0129FB0011124A50106
:100A2000940104C056954795379527956A95D2F756
:100A3000CA01B9010190F081E02DCE010995E7CFFF
:100A400060E0CE010E94DB044D2D413208F040E20F
:100A50002C2D6FE372E08F2D0E94770510923E02DD
:100A600080933D02DF91CF911F910F91FF90EF9006
:100A7000DF90CF90BF90AF909F908F900895CF92CE
:100A8000EF920F931F93C22EE12C00E010E098012B
:100A90000E94EE041F910F91EF90CF90089521E0F6
:100AA0000C943F0561E00C94DB048DE092E00C9423
:100AB000B7041092CC0281E08093CA021092C9025E
:100AC00061E082E00E946D0B61E083E00E946D0BAB
:100AD000E9EBF0E080818E7F808380818D7F808351
:100AE00088E48093B80085E48093BC000895413287
:100AF00008F043C09091CC029111FCCF91E090930B
:100B0000CC022093CA022FEF20935F021092A4021E
:100B1000240F2093A3029093CB029091CB02880FD5
:100B2000892B8093CB028091C902813061F41092AD
:100B3000C9028091CB028093BB008091BC0083FDF1
:100B4000F8CF85EC01C085EE8093BC008091CC028B
:100B50008130E1F38091A402841710F44091A40243
:100B600025EA32E0FB01D9018A2F821B841718F491
:100B70008D918193F9CF842F089580E008950F938C
:100B8000413208F04AC09091CC029111FCCF92E022
:100B90009093CC020093CA029FEF90935F02109251
:100BA000A4024093A302FB0165EA72E0DB019A2FE5
:100BB000961B941718F491919D93F9CF1092CB0244
:100BC0009091CB02880F892B8093CB028091C90230
:100BD000813061F41092C9028091CB028093BB00F6
:100BE0008091BC0083FDF8CF85EC01C085EE809339
:100BF000BC00222321F08091CC028230E1F380916D
:100C00005F028F3F61F080915F02803251F08091EE
:100C10005F02803341F483E007C081E005C080E0DB
:100C200003C082E001C084E00F910895613298F41E
:100C30002091CC02243089F460938102FC0183E886
:100C400092E0DC012A2F281B261718F421912D93FE
:100C5000F9CF80E0089581E0089582E0089585ED60
:100C60008093BC008091BC0084FDFCCF1092CC022C
:100C7000089585EC8093BC001092CC0208951F92D9
:100C80000F920FB60F9211242F933F934F935F93C0
:100C90006F937F938F939F93AF93BF93EF93FF9344
:100CA0008091B900887F803609F49EC078F588323B
:100CB00009F45DC090F4803109F456C038F48823FB
:100CC00009F4F5C0883009F44FC0F5C0883109F443
:100CD0004EC0803209F45FC0EEC0803409F46AC0AF
:100CE00058F4803309F457C0883309F0E4C0809386
:100CF0005F020E943906DFC0803509F44FC0883595
:100D000009F45DC0883409F0D6C0D3C0883909F42D
:100D1000C4C0A8F4883709F467C038F4883609F4E9
:100D200063C0803709F460C0C6C0883809F4B5C014
:100D3000803909F45FC0803809F0BDC05BC0803BDA
:100D400009F483C038F4803A09F466C0883A09F49B
:100D50007CC0B1C0803C09F4A4C0883C09F4A1C0A7
:100D6000883B09F487C0A7C08091CB0210C0909146
:100D7000A4028091A302981770F5E091A40281E08B
:100D80008E0F8093A402F0E0EB55FD4F808180939D
:100D9000BB0085EC83C080935F028BC0E091A4020E
:100DA00081E08E0F8093A4028091BB00F0E0EB55B0
:100DB000FD4F80839091A4028091A3026BC0E091CB
:100DC000A40281E08E0F8093A4028091BB00F0E02A
:100DD000EB55FD4F80838091CA0281116AC081E08A
:100DE0008093C90284EA5EC083E08093CC021092B3
:100DF0006002CFCF80916002803208F04EC0E09157
:100E0000600281E08E0F809360028091BB00F0E071
:100E1000EF59FD4F8083BDCF0E943906809160025B
:100E2000803230F4E0916002F0E0EF59FD4F108223
:100E30006091600270E0E091C502F091C60281E627
:100E400092E009951092600236C084E08093CC0253
:100E50001092820210928102E091C702F091C802C2
:100E6000099580918102811105C081E08093810202
:100E700010928302E091820281E08E0F80938202C1
:100E8000F0E0ED57FD4F80818093BB00909182028E
:100E900080918102981708F47CCF85E88093BC008C
:100EA0000AC085EC8093BC001092CC0204C0109262
:100EB0005F020E942F06FF91EF91BF91AF919F912A
:100EC0008F917F916F915F914F913F912F910F90F3
:100ED0000FBE0F901F901895FC0112828FEF818337
:100EE000108213820895FC018381882331F06111FF
:100EF00003C08FEF8183089511820895CF93DF930C
:100F0000EC016A838DE092E00E94C70441E06A81AF
:100F10008DE092E00E944F0591E0811101C090E0C8
:100F20009B838DE092E00E94380488838B8190E05F
:100F3000DF91CF910895CF93DF93EC018B818823CC
:100F4000A9F089818095862388836A818DE092E06B
:100F50000E94D10468818DE092E00E9488048DE0B7
:100F600092E00E945205282F30E002C020E030E0DD
:100F700081E090E0232B11F080E090E0DF91CF91B1
:100F8000089508950895DC01ED91FC910284F385A4
:100F9000E02D41E0099581E090E00895FC01138285
:100FA000128225EA31E0318320830895DC01ED913E
:100FB000FC910084F185E02D6FEF0994DC01ED9147
:100FC000FC910284F385E02D40E0099461E00E94E9
:100FD000DE0780ED97E00C94960A62E00E94DE073F
:100FE00080ED97E00C94960ACF93DF93CDB7DEB7F0
:100FF00028970FB6F894DEBF0FBECDBF1D8220E448
:101000002E8334E13F8334E5388719822A8320E137
:101010002B8320E52C83FC012781421710F04FEF32
:10102000420FFC01308550E0FE01E40FF51F303126
:1010300021F4243011F4218101C02581260F20687C
:10104000622F28960FB6F894DEBF0FBECDBFDF919A
:10105000CF910C94DE07FC016581262F2460258347
:101060006C600C94DE07CF93DF93EC01423018F0F4
:101070008C8188608C834F836887222329F04130DC
:1010800019F48C8184608C8364E670E080E090E0E9
:101090000E945C0A6C8164FD31C0E881F9810284A0
:1010A000F385E02D42E063E0CE01099584E991E10A
:1010B0000E94960AE881F9810284F385E02D42E0DE
:1010C00063E0CE01099584E991E10E94960AE881E6
:1010D000F9810284F385E02D42E063E0CE010995B9
:1010E00086E990E00E94960AE881F9810284F385FE
:1010F000E02D42E062E0CE01099516C06062CE01AB
:101100000E94DE0784E991E10E94960A6C81606288
:10111000CE010E94DE0786E990E00E94960A6C816B
:101120006062CE010E94DE076C816062CE010E9487
:10113000DE0784E08D83CE010E942B08CE010E9441
:10114000E60782E08E8366E0CE010E94DE07CE01D4
:10115000DF91CF910C94D60721E001C0220F6A9550
:10116000EAF7DC011C962C931C971A965C934E931D
:101170001997ED91FC910084F185E02D60E00994D0
:10118000FC012485222399F081859285009719F42A
:10119000611105C006C0019721F4611102C02587C5
:1011A00001C015866585CF010E960C949B070895A6
:1011B0000F931F93CF93DF93EC018C01025F1F4FBE
:1011C0006B85C8010E947E07019761F461E0C80148
:1011D0000E9473071C8260E0C8010E949B0781E0A7
:1011E00090E002C080E090E0DF91CF911F910F91DD
:1011F00008958F92AF92CF92EF920F93CF93DF9398
:10120000CDB7DEB7FC01638714861586128611867A
:1012100081E0982F01C0990F4A95EAF7928B982F99
:1012200001C0990F2A95EAF7938B982F01C0990F67
:101230000A95EAF7948B982F01C0990FEA94EAF780
:10124000958B982F01C0990FCA94EAF7968B982F27
:1012500001C0990FAA94EAF7978B01C0880F8A946E
:10126000EAF7808FDF91CF910F91EF90CF90AF9001
:101270008F9008954F925F926F927F928F92AF926C
:10128000CF92EF920F931F93CF93DF9300D01F92D3
:10129000CDB7DEB73C011A894B885C882B834A8323
:1012A00069830E94CE0785EB91E0F30191838083EF
:1012B000C3010E960E946C072B814A816981C3018C
:1012C0000E94F908A201612FC3010F900F900F90A7
:1012D000DF91CF911F910F91EF90CF90AF908F90B2
:1012E0007F906F905F904F900C94AC08FF920F939B
:1012F0001F93CF93DF93EC01F62E8C01025F1F4FFB
:101300006A896F29C8010E949B076A8960956F21CD
:10131000C801DF91CF911F910F91FF900C949B0713
:1013200020E030E050E060FF05C0FC01E20FF31F59
:101330007589572B66952F5F3F4F2430310599F7FC
:10134000413011F4FC014489FC016585652B642B57
:101350000C9476090F931F93CF93DF93EC01142F16
:10136000062F0F70423011F440E00AC070E084E0B4
:10137000759567958A95E1F7CE010E949009412FF6
:10138000602FCE01DF91CF911F910F910C949009A6
:101390000F931F93CF93DF9300D01F92CDB7DEB78B
:1013A0008C012B834A8369830E94D8082B814A8150
:1013B0006981C8010F900F900F90DF91CF911F911D
:1013C0000F910C9433081F920F920FB60F921124B5
:1013D0002F933F938F939F93AF93BF938091CE02B0
:1013E0009091CF02A091D002B091D1023091CD0264
:1013F00023E0230F2D3720F40196A11DB11D05C058
:1014000026E8230F0296A11DB11D2093CD028093E3
:10141000CE029093CF02A093D002B093D1028091DC
:10142000D2029091D302A091D402B091D50201963C
:10143000A11DB11D8093D2029093D302A093D40238
:10144000B093D502BF91AF919F918F913F912F9112
:101450000F900FBE0F901F9018952FB7F8946091C2
:10146000CE027091CF028091D0029091D1022FBF15
:1014700008953FB7F8948091D2029091D302A09141
:10148000D402B091D50226B5A89B05C02F3F19F014
:101490000196A11DB11D3FBF6627782F892F9A2F76
:1014A000620F711D811D911D42E0660F771F881F1D
:1014B000991F4A95D1F708958F929F92AF92BF924C
:1014C000CF92DF92EF92FF926B017C010E94390A6A
:1014D0004B015C01C114D104E104F104F1F00E945C
:1014E000EE110E94390A681979098A099B09683E38
:1014F00073408105910570F321E0C21AD108E1081B
:10150000F10888EE880E83E0981EA11CB11CC1145E
:10151000D104E104F10429F7DDCFFF90EF90DF90D3
:10152000CF90BF90AF909F908F900895823091059B
:1015300038F0880F991F880F991F05970197F1F7C9
:101540000895789484B5826084BD84B5816084BD3B
:1015500085B5826085BD85B5816085BDEEE6F0E02C
:10156000808181608083E1E8F0E010828081826088
:101570008083808181608083E0E8F0E08081816009
:101580008083E1E9F0E080818260808380818160F6
:101590008083E0E9F0E0808181608083E1ECF0E02D
:1015A000808184608083808182608083808181608B
:1015B0008083E3ECF0E0808181608083E0ECF0E008
:1015C000808182608083E2ECF0E0808181608083B2
:1015D000EAE7F0E08081846080838081826080839C
:1015E000808181608083808180688083089590E01D
:1015F000FC013197EF30F105B0F5EA5AFF4F0C943A
:10160000F114809180008F7703C0809180008F7DDE
:1016100080938000089580918000877FF9CF84B502
:101620008F7702C084B58F7D84BD0895809190002E
:101630008F7707C0809190008F7D03C080919000CC
:10164000877F8093900008958091C0008F7703C0BA
:101650008091C0008F7D8093C00008958091C2006A
:10166000877F8093C2000895CF93DF9390E0FC01C1
:10167000E751FF4F2491FC01E85FFE4F84918823DE
:1016800049F190E0880F991FFC01ED5BFE4FA59199
:10169000B4918B5C9E4FFC01C591D4919FB76111B1
:1016A00008C0F8948C91209582238C9388818223A2
:1016B0000AC0623051F4F8948C91322F3095832314
:1016C0008C938881822B888304C0F8948C91822B20
:1016D0008C939FBFDF91CF9108950F931F93CF936A
:1016E000DF931F92CDB7DEB7282F30E0F901E65324
:1016F000FF4F8491F901E751FF4F1491F901E85F21
:10170000FE4F04910023C9F0882321F069830E94D1
:10171000F70A6981E02FF0E0EE0FFF1FEB5CFE4F50
:10172000A591B4919FB7F8948C91611103C0109565
:10173000812301C0812B8C939FBF0F90DF91CF91AC
:101740001F910F9108950F931F93762F90E0FC0146
:10175000E751FF4F6491FC01E85FFE4FE491711186
:10176000762FF0E0EE0FFF1FE95DFE4F859194911B
:1017700089019A013F70472F0E94960161157105FA
:101780008105910531F06F5F7F4F8F4F9F4F9F70A5
:1017900003C060E070E0CB011F910F9108950E949B
:1017A000091708950E94A10A0E94D10B86ED92E0CC
:1017B0000E9465100E94D903C0E0D0E00E9486021A
:1017C0002097E1F30E940000F9CFCF92DF92EF92D1
:1017D000FF920F931F93CF93DF937C016A01EB017C
:1017E00000E010E00C151D0571F06991D701ED9135
:1017F000FC910190F081E02DC7010995892B19F02A
:101800000F5F1F4FEFCFC801DF91CF911F910F9155
:10181000FF90EF90DF90CF9008956115710581F0F2
:10182000DB010D900020E9F7AD0141505109461B45
:10183000570BDC01ED91FC910280F381E02D0994BE
:1018400080E090E00895DC01ED91FC91DB011496BD
:101850004D915C9115976D917C910280F381E02D03
:1018600009940C940D0C615030F02091F100FC01B2
:1018700020830196F8CF289A84E68093DF020895AA
:101880004091DA025091DB022091D8023091D902C6
:1018900042175307B4F49091E8009570E1F39091EA
:1018A000E80092FD19C08093F1008091DA029091D6
:1018B000DB0201968F739927892B19F48EEF8093A1
:1018C000E8008091DA029091DB0201969093DB02AE
:1018D0008093DA0281E0089580E00895CF92DF924C
:1018E000EF92FF920F931F93CF93DF931F92CDB789
:1018F000DEB7082F162FF42E862F880F8E5F998360
:101900000E94400C83E00E94400CE02EC02E998182
:10191000D92E8C2D8E19811798F4F601F7FE02C08E
:10192000849101C080810E94400C082F80E00E94B9
:10193000400C8023FFEFCF1ADF0A8111EACF01C0EC
:1019400081E00F90DF91CF911F910F91FF90EF9069
:10195000DF90CF9008958091D70081608093D70069
:1019600080EA8093D80089B5806189BD89B582609D
:1019700089BD09B400FEFDCF61E070E080E090E039
:101980000E945C0A8091D8008F7C80618093D8008F
:101990008091E000807F8093E0000895CF93DF93F3
:1019A0001F92CDB7DEB71982CE0101960E944C126C
:1019B0000E948413BE016F5F7F4F0E94FD128981D8
:1019C0000F90DF91CF9108952FB7FC012083F894F9
:1019D00067706093E9000895CF93DF931F92CDB7AE
:1019E000DEB7682FCE0101960E94E40C8091F200D0
:1019F00099819FBF0F90DF91CF910895FF920F9330
:101A00001F93CF93DF9300D0CDB7DEB7F62E8A01B8
:101A10009091DE02992311F057FF03C08FEF9FEFE3
:101A20002BC0682FCE0101967A830E94E40C80912E
:101A3000F20090E0A8017A81801791070CF4AC01C4
:101A4000EF2DF72FF40E84E6FE1639F0289A8093D6
:101A5000DF029091F1009193F7CF4115510521F0EC
:101A60008091F200882321F089818FBFCA0104C0D0
:101A70008BE68093E800F8CF0F900F90DF91CF9125
:101A80001F910F91FF900895CF93DF931F92CDB7D1
:101A9000DEB741E050E0BE016F5F7F4F0E94FE0C59
:101AA000019719F4898190E002C08FEF9FEF0F90AA
:101AB000DF91CF910895CF93DF931F92CDB7DEB71B
:101AC000682FCE0101960E94E40C9091E800892FC6
:101AD000807295FF04C09091F20080E4891B998187
:101AE0009FBF0F90DF91CF9108956F927F928F9259
:101AF0009F92AF92BF92CF92DF92EF92FF920F939D
:101B00001F93CF93DF931F92CDB7DEB7782E7B0163
:101B1000C42EB52E8091DE02882369F0042F152F84
:101B20008AEFD82E872D8072982E9AE3A92E872DC2
:101B30008074882E11C08FEF9FEF57C0872D0E94B1
:101B40005B0D682E81110CC0DA94A9F361E070E09E
:101B500080E090E00E945C0A0115110579F73BC016
:101B6000282F30E0021713070CF4602E672DCE01EA
:101B700001960E94E40C8091E80085FF29C0262D83
:101B800030E0021B130B992039F06A948FEF68162E
:101B9000B1F01092F100F9CFF701862D77FE07C062
:101BA000815058F094919093F1003196F9CF815083
:101BB00020F091919093F100FACFE20EF31E809104
:101BC000E80085FF0FC00115110511F481100AC04E
:101BD00089818FBFC1CF5D9A84E68093E0028C2D0E
:101BE0009B2D03C0A092E800F3CF0F90DF91CF911F
:101BF0001F910F91FF90EF90DF90CF90BF90AF902B
:101C00009F908F907F906F9008951092E9001092AE
:101C1000DB021092DA029093D9028093D8020895E1
:101C2000CF92DF92FF920F931F93CF93DF9300D059
:101C3000CDB7DEB7F82E8A016B0101151105B1F0A1
:101C4000F601F7FE02C0849101C0808149835A8366
:101C50000E94400C01501109FFEFCF1ADF0A4981A1
:101C60005A818111EACF8FEF9FEF01C0CA010F9017
:101C70000F90DF91CF911F910F91FF90DF90CF9048
:101C80000895BF92CF92DF92EF92FF920F931F932E
:101C9000CF93DF936C018B01EB013BEFB32E2097C9
:101CA000C1F07E01C134D1051CF020E4E22EF12CFC
:101CB0008091E80082FFFCCFC8018C1B9D0B6E2D2C
:101CC0008C0D9D1D0E94330CB092E800CE19DF09E7
:101CD000E6CFC801DF91CF911F910F91FF90EF9058
:101CE000DF90CF90BF9008951F920F920FB60F9282
:101CF0001124DF92EF92FF920F931F932F933F9344
:101D00004F935F936F937F938F939F93AF93BF9303
:101D1000EF93FF93CF93DF93CDB7DEB76C97DEBF22
:101D2000CDBF1092E9008091E80083FF23C168E0F5
:101D3000CE0145960E94330C82EF8093E8003D89E6
:101D400037FF05C08091E80080FFFCCF03C08EEF15
:101D50008093E800832F807609F0F0C02E894F89A8
:101D6000D88C21110CC0303829F48091DD02809389
:101D7000F10002C01092F1001092F100F4C0842F23
:101D800090E09D29213049F43111EDC0019709F00F
:101D9000EAC08091DD028D7F0AC0233059F43111F1
:101DA000E2C0019709F0DFC08091DD02826080937C
:101DB000DD02D9C0253041F48091E80080FFFCCFDE
:101DC00040684093E300CFC0263009F08DC0EB8C13
:101DD000FC8C22E0D2122CC080E090E00E94050E24
:101DE0000E94CE0C99E08E010F5F1F4FF801292F42
:101DF00011922A95E9F79983DA8291E09E8390EA1D
:101E000098879AEF99872091DA023091DB02275F59
:101E10003F4F3C832B838D83C7010E94050E49E011
:101E200050E0B80180E00E94100E0E94CE0C9BC0D2
:101E3000C7010E94050E0E948413BE016B5E7F4F96
:101E40000E942613009719F00CF08DC090C081E01D
:101E5000D8120EC08B8D9C8D089719F481E0809369
:101E6000D7028091D70281112FC063E671E031C0A3
:101E7000E3E0DE127CC08F89882349F1823029F4A7
:101E800040E86DE081E891E01CC0813029F440E831
:101E90006BE085E791E015C0833009F068C00E94CF
:101EA00084138E010F5F1F4FB8010E944513F80184
:101EB00001900020E9F73197E01BF10B40E06E2F15
:101EC000C8010E946E0C4DC061E571E002C06FE870
:101ED00071E06115710509F44AC0FB01449150E0BD
:101EE00080E80E94100E3FC0273009F440C028301F
:101EF00021F481E08093F10036C02930A1F53370E0
:101F0000B1F5EBE0F1E081E021E036E39081992347
:101F100061F08093E9002093EB0091919093EC00A5
:101F20003093ED008F5F873089F78EE78093EA006A
:101F30001092EA008F898093DE0215C08B8D9C8DF4
:101F40000E94050E898D811105C0CE0145960E9423
:101F5000571207C00E948413BE016B5E7F4F0E9420
:101F60006413882321F08EEF8093E80003C081E2A0
:101F70008093EB006C960FB6F894DEBF0FBECDBF1A
:101F8000DF91CF91FF91EF91BF91AF919F918F9191
:101F90007F916F915F914F913F912F911F910F9181
:101FA000FF90EF90DF900F900FBE0F901F9018954D
:101FB0008093E9008091F200882319F08AE38093EE
:101FC000E80008951F920F920FB60F9211242F93DD
:101FD0003F934F935F936F937F938F939F93AF93B1
:101FE000BF93CF93EF93FF93C091E1008091E10005
:101FF000837F8093E1008093E100C3FF0FC01092C4
:10200000E90081E08093EB001092EC0082E3809382
:10201000ED001092DE0288E08093F000C2FF19C04C
:1020200083E00E94D80F8091E002882339F08091EC
:10203000E00281508093E002882389F18091DF02E1
:10204000882339F08091DF0281508093DF0288235A
:1020500041F1C4FF10C08091E2008E7E81608093C8
:10206000E2008091E1008F7E8093E1008091DC02AC
:102070008E7E806111C0C0FF16C08091E2008E7E0E
:1020800080618093E2008091E1008E7E8093E10088
:102090008091DC028E7E81608093DC0204C05D98BA
:1020A000CDCF2898D6CFFF91EF91CF91BF91AF912F
:1020B0009F918F917F916F915F914F913F912F9160
:1020C0000F900FBE0F901F9018951092DE02109285
:1020D000DD021092DC020E94AB0C8091E1008E7E4A
:1020E0008093E1008DE08093E200559A209A5D98FC
:1020F0002898EEEFFFE7859194918B3F9C4D19F462
:1021000081E0809331030895FC01808191810C94DA
:10211000B015CF93DF93EC0188819981009711F07E
:102120000E94B015198218821D821C821B821A829D
:10213000DF91CF9108950F931F93CF93DF93EC011D
:102140008B016F5F7F4F888199810E943F160097B6
:1021500031F0998388831B830A8381E001C080E08A
:10216000DF91CF911F910F910895CF93DF93EC01F1
:1021700088819981892B29F08A819B81861797070D
:1021800060F4CE010E949B10882341F08C819D81D8
:10219000892B19F4E881F981108281E0DF91CF91D8
:1021A0000895EF92FF920F931F93CF93DF93EC016B
:1021B0007B018A01BA010E94B510811104C0CE01D1
:1021C0000E94891007C01D830C83B7018881998103
:1021D0000E941717CE01DF91CF911F910F91FF90B1
:1021E000EF900895FC0111821082138212821582F1
:1021F00014826115710559F0FB0101900020E9F787
:10220000AF0141505109461B570B0C94D110089552
:10221000CF93DF93EC01FB018617970761F0608194
:1022200071816115710529F0448155810E94D11099
:1022300002C00E948910CE01DF91CF910895FC0168
:102240001182108213821282158214820C9408115A
:10225000EF92FF920F931F93CF93DF93EC017B01DB
:102260000C811D816115710511F480E016C04115C6
:10227000510591F0040F151FB8010E94B510882375
:10228000A1F3288139818C819D81B701820F931F31
:102290000E9417171D830C8381E0DF91CF911F915E
:1022A0000F91FF90EF900895EF92FF920F931F937D
:1022B000CF93DF93CDB7DEB72D970FB6F894DEBF7F
:1022C0000FBECDBF7C01CB01BA012AE08E010F5FAA
:1022D0001F4FA8010E941E17F80101900020E9F786
:1022E000AF0141505109401B510BB801C7010E9479
:1022F00028112D960FB6F894DEBF0FBECDBFDF912B
:10230000CF911F910F91FF90EF900895EF92FF9260
:102310000F931F93CF93DF93CDB7DEB764970FB6BC
:10232000F894DEBF0FBECDBF7C01CB01BA018E0198
:102330000F5F1F4F22E044E00E94F714FC01019060
:102340000020E9F7AF0141505109481B590BBC016E
:10235000C7010E94281164960FB6F894DEBF0FBE25
:10236000CDBFDF91CF911F910F91FF90EF90089516
:10237000CF93DF93EC016115710569F0FB010190CA
:102380000020E9F7AF0141505109461B570B0E944D
:102390002811811103C0CE010E948910CE01DF9166
:1023A000CF910895CF93DF93EC010E9454118111D6
:1023B00003C0CE010E948910CE01DF91CF91089514
:1023C000CF93DF93EC010E948611811103C0CE01EF
:1023D0000E948910CE01DF91CF9108950895CF9387
:1023E000DF931F92CDB7DEB76983DC01ED91FC91DD
:1023F0000280F381E02D41E050E0BE016F5F7F4F2E
:1024000009950F90DF91CF910895CF93DF93EC0161
:102410008C859D8597FF05C082E00E94440D9D87B5
:102420008C878C859D85DF91CF91089583E00C94F6
:10243000D80FFC018485958597FD06C082E00E9437
:10244000EC0C90E00196089582E00E94EC0C90E084
:102450000895FC018485958597FD05C02FEF3FEF1A
:1024600035872487089582E00C94440DCF93DF9341
:10247000EC0180911C01882331F083E00E94750DEE
:102480001816190634F081E090E09B838A8380E07F
:1024900090E0DF91CF910895FC0120812E5F208391
:1024A00042E450E063E971E080E80C94100EFC0116
:1024B00021818081813A59F4213209F04BC047E0F3
:1024C00050E065E171E080E00E94100E5EC0813254
:1024D00009F040C0233289F4838190E0982F882747
:1024E0003281832BA0E0B0E0809311019093120120
:1024F000A0931301B09314010FC0203239F467E0A8
:1025000070E085E191E00E94410E09C0223221F481
:10251000828180931C0103C02D7F2032B1F5809110
:102520003103811103C0E0E0F8E002C0EEEFFAE011
:102530008091150190911601A0911701B091180199
:10254000803B9440A105B10511F580911C0180FFED
:1025500003C01DC080E00895EE3F2AE0F20731F08D
:10256000808191819093FF0A8093FE0A87E797E725
:10257000918380832BE088E190E00FB6F894A895D2
:10258000809360000FBE2093600081E0089588E191
:102590000FB6F89480936000109260000FBEA8956B
:1025A000EE3F8AE0F80739F08091FE0A9091FF0A29
:1025B00091838083EACF1092FF0A1092FE0AE5CF42
:1025C0001092E4021092E30288EE93E0A0E0B0E003
:1025D0008093E5029093E602A093E702B093E802AD
:1025E00085EC91E09093E2028093E1028FEF9FEF00
:1025F0009093EE028093ED020895EF92FF920F9375
:102600001F93CF93DF937B01FC01C281D38100E054
:1026100010E0209781F0E881F9810280F381E02DBC
:10262000B701CE01099597FD08C0080F191F08844E
:10263000D985C02DEECFC80102C08FEF9FEFDF918B
:10264000CF911F910F91FF90EF9008950F931F93DB
:10265000CF93DF938B01FC01C281D381209771F06E
:10266000E881F9810480F581E02DB801CE0109955A
:10267000009731F40884D985C02DF0CF80E090E038
:10268000DF91CF911F910F9108950F931F93CF93D7
:10269000DF938B01FC01C281D381209771F0E88127
:1026A000F9810680F781E02DB801CE010995080F68
:1026B000111D0884D985C02DF0CFF8011082DF915B
:1026C000CF911F910F9108950F931F93CF93DF9395
:1026D0008B01FC01C281D381209771F0E881F981DF
:1026E0000190F081E02DB801CE010995811106C05D
:1026F0000884D985C02DF0CF80E001C081E0DF9152
:10270000CF911F910F9108958091360381110DC0D3
:1027100082E08093320384E0809333031092350388
:102720001092340381E08093360382E393E00895AE
:102730000CD0BAC0B2D040F0A9D030F021F45F3F45
:1027400019F09BC05111E4C09EC0BFD098F39923EB
:10275000C9F35523B1F3951B550BBB27AA27621765
:102760007307840738F09F5F5F4F220F331F441FAA
:10277000AA1FA9F333D00E2E3AF0E0E830D09150E2
:102780005040E695001CCAF729D0FE2F27D0660FCF
:10279000771F881FBB1F261737074807AB07B0E80E
:1027A00009F0BB0B802DBF01FF2793585F4F2AF024
:1027B0009E3F510568F061C0ABC05F3FECF3983EAF
:1027C000DCF3869577956795B795F7959F5FC9F781
:1027D000880F911D9695879597F90895E1E0660F0A
:1027E000771F881FBB1F621773078407BA0720F083
:1027F000621B730B840BBA0BEE1F88F7E0950895EC
:10280000E89409C097FB3EF490958095709561958A
:102810007F4F8F4F9F4F9923A9F0F92F96E9BB2740
:102820009395F695879577956795B795F111F8CFBC
:10283000FAF4BB0F11F460FF1BC06F5F7F4F8F4F27
:102840009F4F16C0882311F096E911C0772321F01D
:102850009EE8872F762F05C0662371F096E8862FB5
:1028600070E060E02AF09A95660F771F881FDAF70C
:10287000880F9695879597F9089597F99F6780E84F
:1028800070E060E008959FEF80EC089500240A94C2
:102890001616170618060906089500240A9412163B
:1028A0001306140605060895092E0394000C11F46E
:1028B000882352F0BB0F40F4BF2B11F460FF04C01B
:1028C0006F5F7F4F8F4F9F4F089557FD9058440F74
:1028D000551F59F05F3F71F04795880F97FB991F7F
:1028E00061F09F3F79F0879508951216130614063C
:1028F000551FF2CF4695F1DF08C0161617061806C9
:10290000991FF1CF86957105610508940895E894A3
:10291000BB2766277727CB0197F908950BD0C4CF43
:10292000B5DF28F0BADF18F0952309F0A6CFABCFBA
:102930001124EECFCADFA0F3959FD1F3950F50E09D
:10294000551F629FF001729FBB27F00DB11D639F61
:10295000AA27F00DB11DAA1F649F6627B00DA11D07
:10296000661F829F2227B00DA11D621F739FB00DAD
:10297000A11D621F839FA00D611D221F749F33271D
:10298000A00D611D231F849F600D211D822F762FB6
:102990006A2F11249F5750408AF0E1F088234AF0B3
:1029A000EE0FFF1FBB1F661F771F881F91505040FF
:1029B000A9F79E3F510570F060CFAACF5F3FECF3BF
:1029C000983EDCF3869577956795B795F795E795EB
:1029D0009F5FC1F7FE2B880F911D9695879597F9FC
:1029E0000895EE0FFF1F0590F491E02D0994EF92EA
:1029F0000F931F93CF93DF93E80147FF02C034E1A9
:102A000001C034E0E42FFF27E7FDF095F7FF03C096
:102A1000F195E195F109E32E022F2E2FAE010E94D0
:102A20004017CE01DF91CF911F910F91EF90089544
:102A3000CF93DF938230910510F482E090E0E09133
:102A40004003F091410320E030E0A0E0B0E0309797
:102A500039F14081518148175907B8F04817590793
:102A600071F482819381109729F013969C938E9331
:102A700012972CC0909341038093400327C02115E7
:102A8000310531F04217530718F0A901DB0101C0ED
:102A9000EF019A01BD01DF010280F381E02DD7CF64
:102AA00021153105F9F0281B390B2430310580F44C
:102AB0008A819B816115710521F0FB0193838283DB
:102AC00004C09093410380934003FE01329644C0BA
:102AD000FE01E20FF31F8193919322503109398354
:102AE00028833AC020913E0330913F03232B41F4C9
:102AF000209102013091030130933F0320933E0364
:102B000020910001309101012115310541F42DB7CB
:102B10003EB74091040150910501241B350BE09113
:102B20003E03F0913F03E217F307A0F42E1B3F0B87
:102B30002817390778F0AC014E5F5F4F241735072F
:102B400048F04E0F5F1F50933F0340933E03819325
:102B5000919302C0E0E0F0E0CF01DF91CF910895C2
:102B6000CF93DF93009709F487C0FC01329713825B
:102B70001282C0914003D0914103209781F42081BB
:102B80003181280F391F80913E0390913F038217B6
:102B9000930779F5F0933F03E0933E036DC0DE01A8
:102BA00020E030E0AE17BF0750F412964D915C91D3
:102BB00013979D014115510509F1DA01F3CFB38354
:102BC000A28340815181840F951F8A179B0771F45E
:102BD0008D919C911197840F951F0296918380830C
:102BE00012968D919C9113979383828321153105C1
:102BF00029F4F0934103E09340033EC0D9011396BA
:102C0000FC93EE9312974D915D91A40FB51FEA17B7
:102C1000FB0779F480819181840F951F0296D90179
:102C200011969C938E938281938113969C938E939D
:102C30001297E0E0F0E08A819B81009719F0FE0195
:102C4000EC01F9CFCE01029628813981820F931FC2
:102C500020913E0330913F032817390769F43097DC
:102C600029F4109241031092400302C01382128291
:102C7000D0933F03C0933E03DF91CF910895A0E02E
:102C8000B0E0E5E4F6E10C94AA19EC01CB01209741
:102C900019F40E941815B8C0FE01E60FF71F9E0137
:102CA00022503109E217F30708F4ACC0D9010D91A5
:102CB0001C91119706171707B8F00530110508F495
:102CC0009FC0A801445051094617570708F498C0FF
:102CD00002501109061B170B019311936D937C93FE
:102CE000CF010E94B0158CC05B01A01AB10A4E0141
:102CF000800E911EA0914003B0914103612C712C74
:102D000060E070E0109709F449C0A815B905C9F54D
:102D1000ED90FC901197670142E0C40ED11CCA14DB
:102D2000DB0478F147018A189B08640142E0C40E75
:102D3000D11C1296BC9012971396AC91B5E0CB16AD
:102D4000D10440F0B282A38391828082D9018D9315
:102D50009C9309C00E5F1F4F0E0D1F1DF9011183BB
:102D60000083EB2DFA2F6115710531F0DB0113960D
:102D7000FC93EE93129744C0F0934103E093400319
:102D80003FC06D917C9111976616770608F43B0160
:102D9000BD0112960D90BC91A02DB4CF60913E0361
:102DA00070913F0368157905E9F468167906D0F447
:102DB00040910001509101014115510541F44DB779
:102DC0005EB76091040170910501461B570BE41733
:102DD000F507C0F4F0933F03E0933E03F9019183BC
:102DE00080830EC00E9418157C01009759F0A8013D
:102DF000BE010E940E17CE010E94B015C70104C08B
:102E0000CE0102C080E090E0CDB7DEB7EEE00C94DA
:102E1000C61981E090E0F8940C94DD19FB01DC0107
:102E200002C001900D9241505040D8F70895FB0127
:102E3000DC0101900D920020E1F70895BB27FA0113
:102E4000A62F6217710581059105330B30FB66F0E3
:102E5000AA27660F771F881F991FAA1FA21710F0B5
:102E6000A21B63953850A9F7A05DAA3308F0A95DAD
:102E7000A19336F7B111B1931082CA010C9496193F
:102E80006F927F929F92AF92BF92CF92DF92EF921A
:102E9000FF920F931F93CF93DF93CDB7DEB72997A0
:102EA0000FB6F894DEBF0FBECDBF6A01B22E102F51
:102EB0000C3320F4FF24F394F00E02C04CE3F42E04
:102EC0000F2D27E0AE014F5F5F4F0E94BE18798142
:102ED000272F2970213031F0E1FC06C0E0FC06C04C
:102EE00060E005C06DE203C06BE201C060E2AE2DA0
:102EF000A07173FF36C0662311F084E001C083E047
:102F00008B1510F4B81A01C0B12CA1110BC0F60139
:102F10008B2D90E2882319F091938150FBCFCB0C3D
:102F2000D11CB12C662331F0F601608396012F5F2E
:102F30003F4F6901C6010396E2FE05C02EE4F6018B
:102F4000208331E404C02EE6F601208331E631838C
:102F50002283FC012B2D30E22223F1F13193215009
:102F6000FBCF72FF40C0662311F084E001C083E014
:102F70008B1510F4B81A01C0B12CA1110BC0F601C9
:102F80008B2D90E2882319F091938150FBCFCB0CCD
:102F9000D11CB12C662331F0F601608396012F5FBE
:102FA0003F4F6901C6010396E2FE07C029E4F6011E
:102FB00020832EE4218326E406C029E6F60120833F
:102FC0002EE6218326E62283FC012B2D30E22223EC
:102FD00019F031932150FBCFFC01EB0DF11D108254
:102FE0008EEF9FEFB7C0B1E0611101C0B0E04B2F91
:102FF00050E01816190624F49C012F5F3F4F02C0C1
:1030000021E030E0240F351F112329F0412F50E03B
:103010004F5F5F4F02C040E050E0420F531F2B2D27
:1030200030E04217530714F4B41A01C0B12C2E2D0E
:10303000287159F4F6012B2D30E2222319F0319337
:103040002150FBCFCB0CD11CB12CBB2331F0F601AE
:10305000608396012F5F3F4F6901A1110BC0F601FC
:103060002B2D30E3222319F031932150FBCFCB0CD1
:10307000D11CB12CF80E0A81372F3071A32E74FFAA
:1030800003C0013309F4FA941F142CF42F2D2930B6
:1030900018F028E001C021E0682F392F97FF02C007
:1030A00060E030E0462F532F612C712C3EE2932ECE
:1030B000BC01621B71099B01DC01A41BB50BE1E0A3
:1030C000F0E0EC0FFD1FAE0FBF1FE12EF12CF194CD
:1030D000E194F1084F3FFFEF5F0731F4F601908272
:1030E000B6016F5F7F4F6B01841795074CF0241773
:1030F000350734F4BD01660D771DFB01118101C058
:1031000010E341505109FFEF6F1A7F0AB6016F5F5C
:103110007F4F4E155F0524F0F60110836B01DACF67
:103120004817590739F4063320F4053319F4A11070
:1031300001C011E3F6011083FB018B2D90E288237F
:1031400019F091938150FBCFFB01EB0DF11D108223
:1031500080E090E029960FB6F894DEBF0FBECDBF99
:10316000DF91CF911F910F91FF90EF90DF90CF9063
:10317000BF90AF909F907F906F900895283008F097
:1031800027E03327DA01990F311D87FD9160009602
:103190006105710539F432602E5F3D9330E32A9565
:1031A000E1F708959F3F30F080387105610509F01F
:1031B0003C5F3C5F3D93913008F08068911DDF9348
:1031C000CF931F930F93FF92EF92192F987F9695AD
:1031D000E92F96959695E90FFF27E15DFD4F992719
:1031E0003327EE24FF24A701E701059008940794F4
:1031F00028F4360FE71EF81E491F511D660F771F72
:10320000881F991F0694A1F70590079428F4E70EEC
:10321000F81E491F561FC11D770F881F991F661F73
:103220000694A1F70590079428F4F80E491F561F3D
:10323000C71FD11D880F991F661F771F0694A1F71E
:103240000590079420F4490F561FC71FD81F990FE8
:10325000661F771F881F0694A9F784911095177031
:1032600041F0D695C79557954795F794E7941A95E9
:10327000C1F7E5EDF1E068941590159135916591F0
:10328000959105907FE27395E118F10A430B560B77
:10329000C90BD009C0F7E10CF11E431F561FC91F0F
:1032A000D01D7EF4703311F48A95E6CFE894015076
:1032B00030F0080F0AF40027021708F4202F239596
:1032C000022F7A3328F079E37D932A95E9F710C02D
:1032D0007D932A9589F60694979567953795179566
:1032E0001794E118F10A430B560BC90BD00998F05B
:1032F00023957E9173957A3308F070E37C932013C5
:10330000B8F77E9170617D9330F0839571E37D9382
:1033100070E32A95E1F71124EF90FF900F911F9130
:10332000CF91DF91992787FD90950895DC01FC01ED
:10333000672F71917723E1F7329704C07C916D93E9
:1033400070836291AE17BF07C8F308952F923F9222
:103350004F925F926F927F928F929F92AF92BF92A5
:10336000CF92DF92EF92FF920F931F93CF93DF9351
:10337000CDB7DEB7CA1BDB0B0FB6F894DEBF0FBEAE
:10338000CDBF09942A88398848885F846E847D84FB
:103390008C849B84AA84B984C884DF80EE80FD80FD
:1033A0000C811B81AA81B981CE0FD11D0FB6F89473
:1033B000DEBF0FBECDBFED01089512E0C6EDD2E035
:1033C00004C0FE010E94F3142296C83DD107C9F73C
:0433D000F894FFCF9F
:1033D4000000420380000100320000C1808100002F
:1033E40000FFFFFFFF00E100000000000053656ED6
:1033F400313A202000636D20202020200053656E88
:10340400323A2020004D6573737A6569743A20203E
:10341400006D732020202020004D657373756E6746
:10342400656E2F733A20200056302E312E31005015
:10343400696E67204974004175746F723A004D617A
:10344400726B757320477574656B756E7374004C7D
:1034540061622E2050726F662E2048616C6C65721A
:10346400000000000088045B04300438044B045A54
:103474000400000000C307E50B3308C107C207CFEF
:103484000B00000000C307E50BC809AC08C008AA7C
:103494000900000000EF1136121912291205121644
:0234A400120014
:00000001FF
